{
	"data": {
		"bytecode": {
			"linkReferences": {},
			"object": "6080604052600019600a556064600c55604051620026293803806200262983398101604081905262000031916200032e565b8951620000469060069060208d0190620001b8565b5088516200005c9060079060208c0190620001b8565b5060088890556200006f88600a62000448565b600b81905562000080908862000513565b600d819055600a546200009491906200058c565b600a54620000a3919062000535565b600e55620000b386606462000513565b601255620000c385606462000513565b601355620000d384606462000513565b6014819055601254601555601354601655601755600980546001600160a01b038086166001600160a01b03199283161790925560008054858416921682178155600e5491815260016020526040808220929092559051918316913480156108fc0292909190818181858888f1935050505015801562000156573d6000803e3d6000fd5b50816001600160a01b031660006001600160a01b03167fddf252ad1be2c89b69c2b068fc378daa952ba7f163c4a11628f55a4df523b3ef600d54604051620001a091815260200190565b60405180910390a350505050505050505050620005d9565b828054620001c6906200054f565b90600052602060002090601f016020900481019282620001ea576000855562000235565b82601f106200020557805160ff191683800117855562000235565b8280016001018555821562000235579182015b828111156200023557825182559160200191906001019062000218565b506200024392915062000247565b5090565b5b8082111562000243576000815560010162000248565b80516001600160a01b03811681146200027657600080fd5b919050565b600082601f8301126200028c578081fd5b81516001600160401b0380821115620002a957620002a9620005c3565b604051601f8301601f19908116603f01168101908282118183101715620002d457620002d4620005c3565b81604052838152602092508683858801011115620002f0578485fd5b8491505b83821015620003135785820183015181830184015290820190620002f4565b838211156200032457848385830101525b9695505050505050565b6000806000806000806000806000806101408b8d0312156200034e578586fd5b8a516001600160401b038082111562000365578788fd5b620003738e838f016200027b565b9b5060208d015191508082111562000389578788fd5b50620003988d828e016200027b565b99505060408b0151975060608b0151965060808b0151955060a08b0151945060c08b01519350620003cc60e08c016200025e565b9250620003dd6101008c016200025e565b9150620003ee6101208c016200025e565b90509295989b9194979a5092959850565b600181815b8085111562000440578160001904821115620004245762000424620005ad565b808516156200043257918102915b93841c939080029062000404565b509250929050565b60006200045683836200045d565b9392505050565b6000826200046e575060016200050d565b816200047d575060006200050d565b8160018114620004965760028114620004a157620004c1565b60019150506200050d565b60ff841115620004b557620004b5620005ad565b50506001821b6200050d565b5060208310610133831016604e8410600b8410161715620004e6575081810a6200050d565b620004f28383620003ff565b8060001904821115620005095762000509620005ad565b0290505b92915050565b6000816000190483118215151615620005305762000530620005ad565b500290565b6000828210156200054a576200054a620005ad565b500390565b600181811c908216806200056457607f821691505b602082108114156200058657634e487b7160e01b600052602260045260246000fd5b50919050565b600082620005a857634e487b7160e01b81526012600452602481fd5b500690565b634e487b7160e01b600052601160045260246000fd5b634e487b7160e01b600052604160045260246000fd5b61204080620005e96000396000f3fe608060405234801561001057600080fd5b50600436106101da5760003560e01c80637b7e8bac11610104578063b5862428116100a2578063f2cc0c1811610071578063f2cc0c18146103eb578063f2fde38b146103fe578063f84354f114610411578063fc061a4f1461042457600080fd5b8063b586242814610375578063cba0e9961461037e578063d608b3b2146103aa578063dd62ed3e146103b257600080fd5b8063a457c2d7116100de578063a457c2d714610333578063a9059cbb14610346578063ae9dd5e014610359578063b2bdfa7b1461036257600080fd5b80637b7e8bac146102ef5780638da5cb5b1461031a57806395d89b411461032b57600080fd5b8063395093511161017c578063457bdf6c1161014b578063457bdf6c146102b857806370a08231146102cb578063715018a6146102de57806377ef7993146102e657600080fd5b806339509351146102755780633bd5d173146102885780633c9f861d1461029d5780634549b039146102a557600080fd5b806318160ddd116101b857806318160ddd1461023257806323b872dd1461023a5780632d8381191461024d578063313ce5671461026057600080fd5b806306fdde03146101df578063095ea7b3146101fd57806313114a9d14610220575b600080fd5b6101e7610437565b6040516101f49190611e57565b60405180910390f35b61021061020b366004611db8565b6104c9565b60405190151581526020016101f4565b600f545b6040519081526020016101f4565b600d54610224565b610210610248366004611d7d565b6104e0565b61022461025b366004611de1565b610549565b60085460405160ff90911681526020016101f4565b610210610283366004611db8565b6105d2565b61029b610296366004611de1565b610608565b005b601054610224565b6102246102b3366004611df9565b6106f4565b61029b6102c6366004611d31565b610783565b6102246102d9366004611d31565b6107cf565b61029b61082e565b61022460135481565b600954610302906001600160a01b031681565b6040516001600160a01b0390911681526020016101f4565b6000546001600160a01b0316610302565b6101e76108a2565b610210610341366004611db8565b6108b1565b610210610354366004611db8565b610900565b61022460145481565b600054610302906001600160a01b031681565b61022460125481565b61021061038c366004611d31565b6001600160a01b031660009081526004602052604090205460ff1690565b601154610224565b6102246103c0366004611d4b565b6001600160a01b03918216600090815260036020908152604080832093909416825291909152205490565b61029b6103f9366004611d31565b61090d565b61029b61040c366004611d31565b610a60565b61029b61041f366004611d31565b610b4a565b61029b610432366004611e2c565b610d39565b60606006805461044690611f4d565b80601f016020809104026020016040519081016040528092919081815260200182805461047290611f4d565b80156104bf5780601f10610494576101008083540402835291602001916104bf565b820191906000526020600020905b8154815290600101906020018083116104a257829003601f168201915b5050505050905090565b60006104d6338484610dc8565b5060015b92915050565b60006104ed848484610ef0565b61053f843361053a856040518060600160405280602a8152602001611fe1602a91396001600160a01b038a16600090815260036020908152604080832033845290915290205491906111f7565b610dc8565b5060019392505050565b6000600e548211156105b55760405162461bcd60e51b815260206004820152602a60248201527f416d6f756e74206d757374206265206c657373207468616e20746f74616c207260448201526965666c656374696f6e7360b01b60648201526084015b60405180910390fd5b60006105bf611231565b90506105cb8382611254565b9392505050565b3360008181526003602090815260408083206001600160a01b038716845290915281205490916104d691859061053a9086611296565b3360008181526004602052604090205460ff161561067d5760405162461bcd60e51b815260206004820152602c60248201527f4578636c75646564206164647265737365732063616e6e6f742063616c6c207460448201526b3434b990333ab731ba34b7b760a11b60648201526084016105ac565b6000610688836112f5565b5050506001600160a01b0386166000908152600160205260409020549394506106b693925084915050611379565b6001600160a01b038316600090815260016020526040902055600e546106dc9082611379565b600e55600f546106ec9084611296565b600f55505050565b6000600d548311156107485760405162461bcd60e51b815260206004820152601f60248201527f416d6f756e74206d757374206265206c657373207468616e20737570706c790060448201526064016105ac565b81610768576000610758846112f5565b509496506104da95505050505050565b6000610773846112f5565b509396506104da95505050505050565b6000546001600160a01b031633146107ad5760405162461bcd60e51b81526004016105ac90611eaa565b600980546001600160a01b0319166001600160a01b0392909216919091179055565b6001600160a01b03811660009081526004602052604081205460ff161561080c57506001600160a01b031660009081526002602052604090205490565b6001600160a01b0382166000908152600160205260409020546104da90610549565b6000546001600160a01b031633146108585760405162461bcd60e51b81526004016105ac90611eaa565b600080546040516001600160a01b03909116907f8be0079c531659141344cd1fd0a4f28419497f9722a3daafe3b4186f6b6457e0908390a3600080546001600160a01b0319169055565b60606007805461044690611f4d565b60006104d6338461053a85604051806060016040528060278152602001611fba602791393360009081526003602090815260408083206001600160a01b038d16845290915290205491906111f7565b60006104d6338484610ef0565b6000546001600160a01b031633146109375760405162461bcd60e51b81526004016105ac90611eaa565b6001600160a01b03811660009081526004602052604090205460ff16156109a05760405162461bcd60e51b815260206004820152601b60248201527f4163636f756e7420697320616c7265616479206578636c75646564000000000060448201526064016105ac565b6001600160a01b038116600090815260016020526040902054156109fa576001600160a01b0381166000908152600160205260409020546109e090610549565b6001600160a01b0382166000908152600260205260409020555b6001600160a01b03166000818152600460205260408120805460ff191660019081179091556005805491820181559091527f036b6384b5eca791c62761152d0c79bb0604c104a5fb6f4eb0703f3154bb3db00180546001600160a01b0319169091179055565b6000546001600160a01b03163314610a8a5760405162461bcd60e51b81526004016105ac90611eaa565b6001600160a01b038116610aef5760405162461bcd60e51b815260206004820152602660248201527f4f776e61626c653a206e6577206f776e657220697320746865207a65726f206160448201526564647265737360d01b60648201526084016105ac565b600080546040516001600160a01b03808516939216917f8be0079c531659141344cd1fd0a4f28419497f9722a3daafe3b4186f6b6457e091a3600080546001600160a01b0319166001600160a01b0392909216919091179055565b6000546001600160a01b03163314610b745760405162461bcd60e51b81526004016105ac90611eaa565b6001600160a01b03811660009081526004602052604090205460ff16610bdc5760405162461bcd60e51b815260206004820152601b60248201527f4163636f756e7420697320616c726561647920696e636c75646564000000000060448201526064016105ac565b60005b600554811015610d3557816001600160a01b031660058281548110610c1457634e487b7160e01b600052603260045260246000fd5b6000918252602090912001546001600160a01b03161415610d235760058054610c3f90600190611f36565b81548110610c5d57634e487b7160e01b600052603260045260246000fd5b600091825260209091200154600580546001600160a01b039092169183908110610c9757634e487b7160e01b600052603260045260246000fd5b600091825260208083209190910180546001600160a01b0319166001600160a01b039485161790559184168152600282526040808220829055600490925220805460ff191690556005805480610cfd57634e487b7160e01b600052603160045260246000fd5b600082815260209020810160001990810180546001600160a01b03191690550190555050565b80610d2d81611f88565b915050610bdf565b5050565b6000546001600160a01b03163314610d635760405162461bcd60e51b81526004016105ac90611eaa565b606483108015610d735750606482105b8015610d7f5750606481105b610d8857600080fd5b610d93836064611f17565b601255610da1826064611f17565b601355610daf816064611f17565b6014819055601254601555601354601655601755505050565b6001600160a01b038316610e2d5760405162461bcd60e51b815260206004820152602660248201527f544f4b454e32303a20617070726f76652066726f6d20746865207a65726f206160448201526564647265737360d01b60648201526084016105ac565b6001600160a01b038216610e8f5760405162461bcd60e51b8152602060048201526024808201527f544f4b454e32303a20617070726f766520746f20746865207a65726f206164646044820152637265737360e01b60648201526084016105ac565b6001600160a01b0383811660008181526003602090815260408083209487168084529482529182902085905590518481527f8c5be1e5ebec7d5bd14f71427d1e84f3dd0314c0f7b2291e5b200ac8c7c3b925910160405180910390a3505050565b6001600160a01b038316610f565760405162461bcd60e51b815260206004820152602760248201527f544f4b454e32303a207472616e736665722066726f6d20746865207a65726f206044820152666164647265737360c81b60648201526084016105ac565b6001600160a01b038216610fba5760405162461bcd60e51b815260206004820152602560248201527f544f4b454e32303a207472616e7366657220746f20746865207a65726f206164604482015264647265737360d81b60648201526084016105ac565b6000811161101c5760405162461bcd60e51b815260206004820152602960248201527f5472616e7366657220616d6f756e74206d7573742062652067726561746572206044820152687468616e207a65726f60b81b60648201526084016105ac565b6009546001906001600160a01b038581169116148061104857506009546001600160a01b038481169116145b8061106b57506001600160a01b03831660009081526004602052604090205460ff165b15611074575060005b80611081576110816113bb565b6001600160a01b03841660009081526004602052604090205460ff1680156110c257506001600160a01b03831660009081526004602052604090205460ff16155b156110d7576110d2848484611400565b6111d5565b6001600160a01b03841660009081526004602052604090205460ff1615801561111857506001600160a01b03831660009081526004602052604090205460ff165b15611128576110d28484846114c4565b6001600160a01b03841660009081526004602052604090205460ff1615801561116a57506001600160a01b03831660009081526004602052604090205460ff16155b1561117a576110d2848484611516565b6001600160a01b03841660009081526004602052604090205460ff1680156111ba57506001600160a01b03831660009081526004602052604090205460ff165b156111ca576110d2848484611567565b6111d5848484611516565b806111f1576111f1601554601255601654601355601754601455565b50505050565b6000818484111561121b5760405162461bcd60e51b81526004016105ac9190611e57565b5060006112288486611f36565b95945050505050565b600080600061123e6115ba565b909250905061124d8282611254565b9250505090565b60006105cb83836040518060400160405280601a81526020017f536166654d6174683a206469766973696f6e206279207a65726f000000000000815250611774565b6000806112a38385611edf565b9050838110156105cb5760405162461bcd60e51b815260206004820152601b60248201527f536166654d6174683a206164646974696f6e206f766572666c6f77000000000060448201526064016105ac565b6000806000806000806000806000806113168b6012546013546014546117a2565b925092509250600061132a8c858585611821565b90506000611336611231565b90506000806113468f8885611839565b9150915060006113598383898988611863565b929e50919c509a5091985093965091945092505050919395979092949650565b60006105cb83836040518060400160405280601e81526020017f536166654d6174683a207375627472616374696f6e206f766572666c6f7700008152506111f7565b6012541580156113cb5750601354155b80156113d75750601454155b156113de57565b6012805460155560138054601655601480546017556000928390559082905555565b600061140a611231565b90506000806000806000806000611420896112f5565b96509650965096509650965096506000611443898461189f90919063ffffffff16565b90506114528c8c8c8b8b61191e565b61145c828d6119c2565b6114698682868686611aa3565b8a6001600160a01b03168c6001600160a01b03167fddf252ad1be2c89b69c2b068fc378daa952ba7f163c4a11628f55a4df523b3ef876040516114ae91815260200190565b60405180910390a3505050505050505050505050565b60006114ce611231565b905060008060008060008060006114e4896112f5565b96509650965096509650965096506000611507898461189f90919063ffffffff16565b90506114528c8c878b8b611b3e565b6000611520611231565b90506000806000806000806000611536896112f5565b96509650965096509650965096506000611559898461189f90919063ffffffff16565b90506114528c8c8a8a611bc6565b6000611571611231565b90506000806000806000806000611587896112f5565b965096509650965096509650965060006115aa898461189f90919063ffffffff16565b90506114528c8c8c8b898c611c3a565b600e54600d546000918291825b600554811015611744578260016000600584815481106115f757634e487b7160e01b600052603260045260246000fd5b60009182526020808320909101546001600160a01b031683528201929092526040019020541180611670575081600260006005848154811061164957634e487b7160e01b600052603260045260246000fd5b60009182526020808320909101546001600160a01b03168352820192909252604001902054115b1561168657600e54600d54945094505050509091565b6116da60016000600584815481106116ae57634e487b7160e01b600052603260045260246000fd5b60009182526020808320909101546001600160a01b031683528201929092526040019020548490611379565b9250611730600260006005848154811061170457634e487b7160e01b600052603260045260246000fd5b60009182526020808320909101546001600160a01b031683528201929092526040019020548390611379565b91508061173c81611f88565b9150506115c7565b50600d54600e5461175491611254565b82101561176b57600e54600d549350935050509091565b90939092509050565b600081836117955760405162461bcd60e51b81526004016105ac9190611e57565b5060006112288486611ef7565b6000806000806117cc60646117c6600c546117c68b8d61189f90919063ffffffff16565b90611254565b905060006117ee60646117c6600c546117c68b8e61189f90919063ffffffff16565b9050600061181060646117c6600c546117c68b8f61189f90919063ffffffff16565b929a91995091975095505050505050565b60006112288261183385818989611379565b90611379565b60008080611847868561189f565b90506000611855868661189f565b919791965090945050505050565b600080611870858461189f565b9050600061187e858561189f565b905060006118928261183385818d8d611379565b9998505050505050505050565b6000826118ae575060006104da565b60006118ba8385611f17565b9050826118c78583611ef7565b146105cb5760405162461bcd60e51b815260206004820152602160248201527f536166654d6174683a206d756c7469706c69636174696f6e206f766572666c6f6044820152607760f81b60648201526084016105ac565b6001600160a01b0385166000908152600260205260409020546119419084611379565b6001600160a01b0386166000908152600260209081526040808320939093556001905220546119709083611379565b6001600160a01b03808716600090815260016020526040808220939093559086168152205461199f9082611296565b6001600160a01b0390941660009081526001602052604090209390935550505050565b60006119cc611231565b905060006119da848361189f565b6009546001600160a01b0316600090815260016020526040902054909150611a029082611296565b600980546001600160a01b039081166000908152600160209081526040808320959095559254909116815260029091522054611a3e9085611296565b600980546001600160a01b03908116600090815260026020908152604091829020949094559154915187815291811692908616917fddf252ad1be2c89b69c2b068fc378daa952ba7f163c4a11628f55a4df523b3ef910160405180910390a350505050565b611abc8461183387600e5461137990919063ffffffff16565b600e55600f54611acc9084611296565b600f55601054611adc9083611296565b601055601154611aec9082611296565b601155600d54611afc9083611379565b600d5560405182815260009030907fddf252ad1be2c89b69c2b068fc378daa952ba7f163c4a11628f55a4df523b3ef9060200160405180910390a35050505050565b6001600160a01b038516600090815260016020526040902054611b619083611379565b6001600160a01b03808716600090815260016020908152604080832094909455918716815260029091522054611b979084611296565b6001600160a01b03851660009081526002602090815260408083209390935560019052205461199f9082611296565b6001600160a01b038416600090815260016020526040902054611be99083611379565b6001600160a01b038086166000908152600160205260408082209390935590851681522054611c189082611296565b6001600160a01b03909316600090815260016020526040902092909255505050565b6001600160a01b038616600090815260026020526040902054611c5d9085611379565b6001600160a01b038716600090815260026020908152604080832093909355600190522054611c8c9084611379565b6001600160a01b03808816600090815260016020908152604080832094909455918816815260029091522054611cc29083611296565b6001600160a01b038616600090815260026020908152604080832093909355600190522054611cf19082611296565b6001600160a01b039095166000908152600160205260409020949094555050505050565b80356001600160a01b0381168114611d2c57600080fd5b919050565b600060208284031215611d42578081fd5b6105cb82611d15565b60008060408385031215611d5d578081fd5b611d6683611d15565b9150611d7460208401611d15565b90509250929050565b600080600060608486031215611d91578081fd5b611d9a84611d15565b9250611da860208501611d15565b9150604084013590509250925092565b60008060408385031215611dca578182fd5b611dd383611d15565b946020939093013593505050565b600060208284031215611df2578081fd5b5035919050565b60008060408385031215611e0b578182fd5b8235915060208301358015158114611e21578182fd5b809150509250929050565b600080600060608486031215611e40578283fd5b505081359360208301359350604090920135919050565b6000602080835283518082850152825b81811015611e8357858101830151858201604001528201611e67565b81811115611e945783604083870101525b50601f01601f1916929092016040019392505050565b6020808252818101527f4f776e61626c653a2063616c6c6572206973206e6f7420746865206f776e6572604082015260600190565b60008219821115611ef257611ef2611fa3565b500190565b600082611f1257634e487b7160e01b81526012600452602481fd5b500490565b6000816000190483118215151615611f3157611f31611fa3565b500290565b600082821015611f4857611f48611fa3565b500390565b600181811c90821680611f6157607f821691505b60208210811415611f8257634e487b7160e01b600052602260045260246000fd5b50919050565b6000600019821415611f9c57611f9c611fa3565b5060010190565b634e487b7160e01b600052601160045260246000fdfe544f4b454e32303a2064656372656173656420616c6c6f77616e63652062656c6f77207a65726f544f4b454e32303a207472616e7366657220616d6f756e74206578636565647320616c6c6f77616e6365a26469706673582212203ed07ddd89ccf3df220666fc2eb840b9664cd2a2744a598f0c0a7dc2749535a064736f6c63430008040033",
			"opcodes": "PUSH1 0x80 PUSH1 0x40 MSTORE PUSH1 0x0 NOT PUSH1 0xA SSTORE PUSH1 0x64 PUSH1 0xC SSTORE PUSH1 0x40 MLOAD PUSH3 0x2629 CODESIZE SUB DUP1 PUSH3 0x2629 DUP4 CODECOPY DUP2 ADD PUSH1 0x40 DUP2 SWAP1 MSTORE PUSH3 0x31 SWAP2 PUSH3 0x32E JUMP JUMPDEST DUP10 MLOAD PUSH3 0x46 SWAP1 PUSH1 0x6 SWAP1 PUSH1 0x20 DUP14 ADD SWAP1 PUSH3 0x1B8 JUMP JUMPDEST POP DUP9 MLOAD PUSH3 0x5C SWAP1 PUSH1 0x7 SWAP1 PUSH1 0x20 DUP13 ADD SWAP1 PUSH3 0x1B8 JUMP JUMPDEST POP PUSH1 0x8 DUP9 SWAP1 SSTORE PUSH3 0x6F DUP9 PUSH1 0xA PUSH3 0x448 JUMP JUMPDEST PUSH1 0xB DUP2 SWAP1 SSTORE PUSH3 0x80 SWAP1 DUP9 PUSH3 0x513 JUMP JUMPDEST PUSH1 0xD DUP2 SWAP1 SSTORE PUSH1 0xA SLOAD PUSH3 0x94 SWAP2 SWAP1 PUSH3 0x58C JUMP JUMPDEST PUSH1 0xA SLOAD PUSH3 0xA3 SWAP2 SWAP1 PUSH3 0x535 JUMP JUMPDEST PUSH1 0xE SSTORE PUSH3 0xB3 DUP7 PUSH1 0x64 PUSH3 0x513 JUMP JUMPDEST PUSH1 0x12 SSTORE PUSH3 0xC3 DUP6 PUSH1 0x64 PUSH3 0x513 JUMP JUMPDEST PUSH1 0x13 SSTORE PUSH3 0xD3 DUP5 PUSH1 0x64 PUSH3 0x513 JUMP JUMPDEST PUSH1 0x14 DUP2 SWAP1 SSTORE PUSH1 0x12 SLOAD PUSH1 0x15 SSTORE PUSH1 0x13 SLOAD PUSH1 0x16 SSTORE PUSH1 0x17 SSTORE PUSH1 0x9 DUP1 SLOAD PUSH1 0x1 PUSH1 0x1 PUSH1 0xA0 SHL SUB DUP1 DUP7 AND PUSH1 0x1 PUSH1 0x1 PUSH1 0xA0 SHL SUB NOT SWAP3 DUP4 AND OR SWAP1 SWAP3 SSTORE PUSH1 0x0 DUP1 SLOAD DUP6 DUP5 AND SWAP3 AND DUP3 OR DUP2 SSTORE PUSH1 0xE SLOAD SWAP2 DUP2 MSTORE PUSH1 0x1 PUSH1 0x20 MSTORE PUSH1 0x40 DUP1 DUP3 KECCAK256 SWAP3 SWAP1 SWAP3 SSTORE SWAP1 MLOAD SWAP2 DUP4 AND SWAP2 CALLVALUE DUP1 ISZERO PUSH2 0x8FC MUL SWAP3 SWAP1 SWAP2 SWAP1 DUP2 DUP2 DUP2 DUP6 DUP9 DUP9 CALL SWAP4 POP POP POP POP ISZERO DUP1 ISZERO PUSH3 0x156 JUMPI RETURNDATASIZE PUSH1 0x0 DUP1 RETURNDATACOPY RETURNDATASIZE PUSH1 0x0 REVERT JUMPDEST POP DUP2 PUSH1 0x1 PUSH1 0x1 PUSH1 0xA0 SHL SUB AND PUSH1 0x0 PUSH1 0x1 PUSH1 0x1 PUSH1 0xA0 SHL SUB AND PUSH32 0xDDF252AD1BE2C89B69C2B068FC378DAA952BA7F163C4A11628F55A4DF523B3EF PUSH1 0xD SLOAD PUSH1 0x40 MLOAD PUSH3 0x1A0 SWAP2 DUP2 MSTORE PUSH1 0x20 ADD SWAP1 JUMP JUMPDEST PUSH1 0x40 MLOAD DUP1 SWAP2 SUB SWAP1 LOG3 POP POP POP POP POP POP POP POP POP POP PUSH3 0x5D9 JUMP JUMPDEST DUP3 DUP1 SLOAD PUSH3 0x1C6 SWAP1 PUSH3 0x54F JUMP JUMPDEST SWAP1 PUSH1 0x0 MSTORE PUSH1 0x20 PUSH1 0x0 KECCAK256 SWAP1 PUSH1 0x1F ADD PUSH1 0x20 SWAP1 DIV DUP2 ADD SWAP3 DUP3 PUSH3 0x1EA JUMPI PUSH1 0x0 DUP6 SSTORE PUSH3 0x235 JUMP JUMPDEST DUP3 PUSH1 0x1F LT PUSH3 0x205 JUMPI DUP1 MLOAD PUSH1 0xFF NOT AND DUP4 DUP1 ADD OR DUP6 SSTORE PUSH3 0x235 JUMP JUMPDEST DUP3 DUP1 ADD PUSH1 0x1 ADD DUP6 SSTORE DUP3 ISZERO PUSH3 0x235 JUMPI SWAP2 DUP3 ADD JUMPDEST DUP3 DUP2 GT ISZERO PUSH3 0x235 JUMPI DUP3 MLOAD DUP3 SSTORE SWAP2 PUSH1 0x20 ADD SWAP2 SWAP1 PUSH1 0x1 ADD SWAP1 PUSH3 0x218 JUMP JUMPDEST POP PUSH3 0x243 SWAP3 SWAP2 POP PUSH3 0x247 JUMP JUMPDEST POP SWAP1 JUMP JUMPDEST JUMPDEST DUP1 DUP3 GT ISZERO PUSH3 0x243 JUMPI PUSH1 0x0 DUP2 SSTORE PUSH1 0x1 ADD PUSH3 0x248 JUMP JUMPDEST DUP1 MLOAD PUSH1 0x1 PUSH1 0x1 PUSH1 0xA0 SHL SUB DUP2 AND DUP2 EQ PUSH3 0x276 JUMPI PUSH1 0x0 DUP1 REVERT JUMPDEST SWAP2 SWAP1 POP JUMP JUMPDEST PUSH1 0x0 DUP3 PUSH1 0x1F DUP4 ADD SLT PUSH3 0x28C JUMPI DUP1 DUP2 REVERT JUMPDEST DUP2 MLOAD PUSH1 0x1 PUSH1 0x1 PUSH1 0x40 SHL SUB DUP1 DUP3 GT ISZERO PUSH3 0x2A9 JUMPI PUSH3 0x2A9 PUSH3 0x5C3 JUMP JUMPDEST PUSH1 0x40 MLOAD PUSH1 0x1F DUP4 ADD PUSH1 0x1F NOT SWAP1 DUP2 AND PUSH1 0x3F ADD AND DUP2 ADD SWAP1 DUP3 DUP3 GT DUP2 DUP4 LT OR ISZERO PUSH3 0x2D4 JUMPI PUSH3 0x2D4 PUSH3 0x5C3 JUMP JUMPDEST DUP2 PUSH1 0x40 MSTORE DUP4 DUP2 MSTORE PUSH1 0x20 SWAP3 POP DUP7 DUP4 DUP6 DUP9 ADD ADD GT ISZERO PUSH3 0x2F0 JUMPI DUP5 DUP6 REVERT JUMPDEST DUP5 SWAP2 POP JUMPDEST DUP4 DUP3 LT ISZERO PUSH3 0x313 JUMPI DUP6 DUP3 ADD DUP4 ADD MLOAD DUP2 DUP4 ADD DUP5 ADD MSTORE SWAP1 DUP3 ADD SWAP1 PUSH3 0x2F4 JUMP JUMPDEST DUP4 DUP3 GT ISZERO PUSH3 0x324 JUMPI DUP5 DUP4 DUP6 DUP4 ADD ADD MSTORE JUMPDEST SWAP7 SWAP6 POP POP POP POP POP POP JUMP JUMPDEST PUSH1 0x0 DUP1 PUSH1 0x0 DUP1 PUSH1 0x0 DUP1 PUSH1 0x0 DUP1 PUSH1 0x0 DUP1 PUSH2 0x140 DUP12 DUP14 SUB SLT ISZERO PUSH3 0x34E JUMPI DUP6 DUP7 REVERT JUMPDEST DUP11 MLOAD PUSH1 0x1 PUSH1 0x1 PUSH1 0x40 SHL SUB DUP1 DUP3 GT ISZERO PUSH3 0x365 JUMPI DUP8 DUP9 REVERT JUMPDEST PUSH3 0x373 DUP15 DUP4 DUP16 ADD PUSH3 0x27B JUMP JUMPDEST SWAP12 POP PUSH1 0x20 DUP14 ADD MLOAD SWAP2 POP DUP1 DUP3 GT ISZERO PUSH3 0x389 JUMPI DUP8 DUP9 REVERT JUMPDEST POP PUSH3 0x398 DUP14 DUP3 DUP15 ADD PUSH3 0x27B JUMP JUMPDEST SWAP10 POP POP PUSH1 0x40 DUP12 ADD MLOAD SWAP8 POP PUSH1 0x60 DUP12 ADD MLOAD SWAP7 POP PUSH1 0x80 DUP12 ADD MLOAD SWAP6 POP PUSH1 0xA0 DUP12 ADD MLOAD SWAP5 POP PUSH1 0xC0 DUP12 ADD MLOAD SWAP4 POP PUSH3 0x3CC PUSH1 0xE0 DUP13 ADD PUSH3 0x25E JUMP JUMPDEST SWAP3 POP PUSH3 0x3DD PUSH2 0x100 DUP13 ADD PUSH3 0x25E JUMP JUMPDEST SWAP2 POP PUSH3 0x3EE PUSH2 0x120 DUP13 ADD PUSH3 0x25E JUMP JUMPDEST SWAP1 POP SWAP3 SWAP6 SWAP9 SWAP12 SWAP2 SWAP5 SWAP8 SWAP11 POP SWAP3 SWAP6 SWAP9 POP JUMP JUMPDEST PUSH1 0x1 DUP2 DUP2 JUMPDEST DUP1 DUP6 GT ISZERO PUSH3 0x440 JUMPI DUP2 PUSH1 0x0 NOT DIV DUP3 GT ISZERO PUSH3 0x424 JUMPI PUSH3 0x424 PUSH3 0x5AD JUMP JUMPDEST DUP1 DUP6 AND ISZERO PUSH3 0x432 JUMPI SWAP2 DUP2 MUL SWAP2 JUMPDEST SWAP4 DUP5 SHR SWAP4 SWAP1 DUP1 MUL SWAP1 PUSH3 0x404 JUMP JUMPDEST POP SWAP3 POP SWAP3 SWAP1 POP JUMP JUMPDEST PUSH1 0x0 PUSH3 0x456 DUP4 DUP4 PUSH3 0x45D JUMP JUMPDEST SWAP4 SWAP3 POP POP POP JUMP JUMPDEST PUSH1 0x0 DUP3 PUSH3 0x46E JUMPI POP PUSH1 0x1 PUSH3 0x50D JUMP JUMPDEST DUP2 PUSH3 0x47D JUMPI POP PUSH1 0x0 PUSH3 0x50D JUMP JUMPDEST DUP2 PUSH1 0x1 DUP2 EQ PUSH3 0x496 JUMPI PUSH1 0x2 DUP2 EQ PUSH3 0x4A1 JUMPI PUSH3 0x4C1 JUMP JUMPDEST PUSH1 0x1 SWAP2 POP POP PUSH3 0x50D JUMP JUMPDEST PUSH1 0xFF DUP5 GT ISZERO PUSH3 0x4B5 JUMPI PUSH3 0x4B5 PUSH3 0x5AD JUMP JUMPDEST POP POP PUSH1 0x1 DUP3 SHL PUSH3 0x50D JUMP JUMPDEST POP PUSH1 0x20 DUP4 LT PUSH2 0x133 DUP4 LT AND PUSH1 0x4E DUP5 LT PUSH1 0xB DUP5 LT AND OR ISZERO PUSH3 0x4E6 JUMPI POP DUP2 DUP2 EXP PUSH3 0x50D JUMP JUMPDEST PUSH3 0x4F2 DUP4 DUP4 PUSH3 0x3FF JUMP JUMPDEST DUP1 PUSH1 0x0 NOT DIV DUP3 GT ISZERO PUSH3 0x509 JUMPI PUSH3 0x509 PUSH3 0x5AD JUMP JUMPDEST MUL SWAP1 POP JUMPDEST SWAP3 SWAP2 POP POP JUMP JUMPDEST PUSH1 0x0 DUP2 PUSH1 0x0 NOT DIV DUP4 GT DUP3 ISZERO ISZERO AND ISZERO PUSH3 0x530 JUMPI PUSH3 0x530 PUSH3 0x5AD JUMP JUMPDEST POP MUL SWAP1 JUMP JUMPDEST PUSH1 0x0 DUP3 DUP3 LT ISZERO PUSH3 0x54A JUMPI PUSH3 0x54A PUSH3 0x5AD JUMP JUMPDEST POP SUB SWAP1 JUMP JUMPDEST PUSH1 0x1 DUP2 DUP2 SHR SWAP1 DUP3 AND DUP1 PUSH3 0x564 JUMPI PUSH1 0x7F DUP3 AND SWAP2 POP JUMPDEST PUSH1 0x20 DUP3 LT DUP2 EQ ISZERO PUSH3 0x586 JUMPI PUSH4 0x4E487B71 PUSH1 0xE0 SHL PUSH1 0x0 MSTORE PUSH1 0x22 PUSH1 0x4 MSTORE PUSH1 0x24 PUSH1 0x0 REVERT JUMPDEST POP SWAP2 SWAP1 POP JUMP JUMPDEST PUSH1 0x0 DUP3 PUSH3 0x5A8 JUMPI PUSH4 0x4E487B71 PUSH1 0xE0 SHL DUP2 MSTORE PUSH1 0x12 PUSH1 0x4 MSTORE PUSH1 0x24 DUP2 REVERT JUMPDEST POP MOD SWAP1 JUMP JUMPDEST PUSH4 0x4E487B71 PUSH1 0xE0 SHL PUSH1 0x0 MSTORE PUSH1 0x11 PUSH1 0x4 MSTORE PUSH1 0x24 PUSH1 0x0 REVERT JUMPDEST PUSH4 0x4E487B71 PUSH1 0xE0 SHL PUSH1 0x0 MSTORE PUSH1 0x41 PUSH1 0x4 MSTORE PUSH1 0x24 PUSH1 0x0 REVERT JUMPDEST PUSH2 0x2040 DUP1 PUSH3 0x5E9 PUSH1 0x0 CODECOPY PUSH1 0x0 RETURN INVALID PUSH1 0x80 PUSH1 0x40 MSTORE CALLVALUE DUP1 ISZERO PUSH2 0x10 JUMPI PUSH1 0x0 DUP1 REVERT JUMPDEST POP PUSH1 0x4 CALLDATASIZE LT PUSH2 0x1DA JUMPI PUSH1 0x0 CALLDATALOAD PUSH1 0xE0 SHR DUP1 PUSH4 0x7B7E8BAC GT PUSH2 0x104 JUMPI DUP1 PUSH4 0xB5862428 GT PUSH2 0xA2 JUMPI DUP1 PUSH4 0xF2CC0C18 GT PUSH2 0x71 JUMPI DUP1 PUSH4 0xF2CC0C18 EQ PUSH2 0x3EB JUMPI DUP1 PUSH4 0xF2FDE38B EQ PUSH2 0x3FE JUMPI DUP1 PUSH4 0xF84354F1 EQ PUSH2 0x411 JUMPI DUP1 PUSH4 0xFC061A4F EQ PUSH2 0x424 JUMPI PUSH1 0x0 DUP1 REVERT JUMPDEST DUP1 PUSH4 0xB5862428 EQ PUSH2 0x375 JUMPI DUP1 PUSH4 0xCBA0E996 EQ PUSH2 0x37E JUMPI DUP1 PUSH4 0xD608B3B2 EQ PUSH2 0x3AA JUMPI DUP1 PUSH4 0xDD62ED3E EQ PUSH2 0x3B2 JUMPI PUSH1 0x0 DUP1 REVERT JUMPDEST DUP1 PUSH4 0xA457C2D7 GT PUSH2 0xDE JUMPI DUP1 PUSH4 0xA457C2D7 EQ PUSH2 0x333 JUMPI DUP1 PUSH4 0xA9059CBB EQ PUSH2 0x346 JUMPI DUP1 PUSH4 0xAE9DD5E0 EQ PUSH2 0x359 JUMPI DUP1 PUSH4 0xB2BDFA7B EQ PUSH2 0x362 JUMPI PUSH1 0x0 DUP1 REVERT JUMPDEST DUP1 PUSH4 0x7B7E8BAC EQ PUSH2 0x2EF JUMPI DUP1 PUSH4 0x8DA5CB5B EQ PUSH2 0x31A JUMPI DUP1 PUSH4 0x95D89B41 EQ PUSH2 0x32B JUMPI PUSH1 0x0 DUP1 REVERT JUMPDEST DUP1 PUSH4 0x39509351 GT PUSH2 0x17C JUMPI DUP1 PUSH4 0x457BDF6C GT PUSH2 0x14B JUMPI DUP1 PUSH4 0x457BDF6C EQ PUSH2 0x2B8 JUMPI DUP1 PUSH4 0x70A08231 EQ PUSH2 0x2CB JUMPI DUP1 PUSH4 0x715018A6 EQ PUSH2 0x2DE JUMPI DUP1 PUSH4 0x77EF7993 EQ PUSH2 0x2E6 JUMPI PUSH1 0x0 DUP1 REVERT JUMPDEST DUP1 PUSH4 0x39509351 EQ PUSH2 0x275 JUMPI DUP1 PUSH4 0x3BD5D173 EQ PUSH2 0x288 JUMPI DUP1 PUSH4 0x3C9F861D EQ PUSH2 0x29D JUMPI DUP1 PUSH4 0x4549B039 EQ PUSH2 0x2A5 JUMPI PUSH1 0x0 DUP1 REVERT JUMPDEST DUP1 PUSH4 0x18160DDD GT PUSH2 0x1B8 JUMPI DUP1 PUSH4 0x18160DDD EQ PUSH2 0x232 JUMPI DUP1 PUSH4 0x23B872DD EQ PUSH2 0x23A JUMPI DUP1 PUSH4 0x2D838119 EQ PUSH2 0x24D JUMPI DUP1 PUSH4 0x313CE567 EQ PUSH2 0x260 JUMPI PUSH1 0x0 DUP1 REVERT JUMPDEST DUP1 PUSH4 0x6FDDE03 EQ PUSH2 0x1DF JUMPI DUP1 PUSH4 0x95EA7B3 EQ PUSH2 0x1FD JUMPI DUP1 PUSH4 0x13114A9D EQ PUSH2 0x220 JUMPI JUMPDEST PUSH1 0x0 DUP1 REVERT JUMPDEST PUSH2 0x1E7 PUSH2 0x437 JUMP JUMPDEST PUSH1 0x40 MLOAD PUSH2 0x1F4 SWAP2 SWAP1 PUSH2 0x1E57 JUMP JUMPDEST PUSH1 0x40 MLOAD DUP1 SWAP2 SUB SWAP1 RETURN JUMPDEST PUSH2 0x210 PUSH2 0x20B CALLDATASIZE PUSH1 0x4 PUSH2 0x1DB8 JUMP JUMPDEST PUSH2 0x4C9 JUMP JUMPDEST PUSH1 0x40 MLOAD SWAP1 ISZERO ISZERO DUP2 MSTORE PUSH1 0x20 ADD PUSH2 0x1F4 JUMP JUMPDEST PUSH1 0xF SLOAD JUMPDEST PUSH1 0x40 MLOAD SWAP1 DUP2 MSTORE PUSH1 0x20 ADD PUSH2 0x1F4 JUMP JUMPDEST PUSH1 0xD SLOAD PUSH2 0x224 JUMP JUMPDEST PUSH2 0x210 PUSH2 0x248 CALLDATASIZE PUSH1 0x4 PUSH2 0x1D7D JUMP JUMPDEST PUSH2 0x4E0 JUMP JUMPDEST PUSH2 0x224 PUSH2 0x25B CALLDATASIZE PUSH1 0x4 PUSH2 0x1DE1 JUMP JUMPDEST PUSH2 0x549 JUMP JUMPDEST PUSH1 0x8 SLOAD PUSH1 0x40 MLOAD PUSH1 0xFF SWAP1 SWAP2 AND DUP2 MSTORE PUSH1 0x20 ADD PUSH2 0x1F4 JUMP JUMPDEST PUSH2 0x210 PUSH2 0x283 CALLDATASIZE PUSH1 0x4 PUSH2 0x1DB8 JUMP JUMPDEST PUSH2 0x5D2 JUMP JUMPDEST PUSH2 0x29B PUSH2 0x296 CALLDATASIZE PUSH1 0x4 PUSH2 0x1DE1 JUMP JUMPDEST PUSH2 0x608 JUMP JUMPDEST STOP JUMPDEST PUSH1 0x10 SLOAD PUSH2 0x224 JUMP JUMPDEST PUSH2 0x224 PUSH2 0x2B3 CALLDATASIZE PUSH1 0x4 PUSH2 0x1DF9 JUMP JUMPDEST PUSH2 0x6F4 JUMP JUMPDEST PUSH2 0x29B PUSH2 0x2C6 CALLDATASIZE PUSH1 0x4 PUSH2 0x1D31 JUMP JUMPDEST PUSH2 0x783 JUMP JUMPDEST PUSH2 0x224 PUSH2 0x2D9 CALLDATASIZE PUSH1 0x4 PUSH2 0x1D31 JUMP JUMPDEST PUSH2 0x7CF JUMP JUMPDEST PUSH2 0x29B PUSH2 0x82E JUMP JUMPDEST PUSH2 0x224 PUSH1 0x13 SLOAD DUP2 JUMP JUMPDEST PUSH1 0x9 SLOAD PUSH2 0x302 SWAP1 PUSH1 0x1 PUSH1 0x1 PUSH1 0xA0 SHL SUB AND DUP2 JUMP JUMPDEST PUSH1 0x40 MLOAD PUSH1 0x1 PUSH1 0x1 PUSH1 0xA0 SHL SUB SWAP1 SWAP2 AND DUP2 MSTORE PUSH1 0x20 ADD PUSH2 0x1F4 JUMP JUMPDEST PUSH1 0x0 SLOAD PUSH1 0x1 PUSH1 0x1 PUSH1 0xA0 SHL SUB AND PUSH2 0x302 JUMP JUMPDEST PUSH2 0x1E7 PUSH2 0x8A2 JUMP JUMPDEST PUSH2 0x210 PUSH2 0x341 CALLDATASIZE PUSH1 0x4 PUSH2 0x1DB8 JUMP JUMPDEST PUSH2 0x8B1 JUMP JUMPDEST PUSH2 0x210 PUSH2 0x354 CALLDATASIZE PUSH1 0x4 PUSH2 0x1DB8 JUMP JUMPDEST PUSH2 0x900 JUMP JUMPDEST PUSH2 0x224 PUSH1 0x14 SLOAD DUP2 JUMP JUMPDEST PUSH1 0x0 SLOAD PUSH2 0x302 SWAP1 PUSH1 0x1 PUSH1 0x1 PUSH1 0xA0 SHL SUB AND DUP2 JUMP JUMPDEST PUSH2 0x224 PUSH1 0x12 SLOAD DUP2 JUMP JUMPDEST PUSH2 0x210 PUSH2 0x38C CALLDATASIZE PUSH1 0x4 PUSH2 0x1D31 JUMP JUMPDEST PUSH1 0x1 PUSH1 0x1 PUSH1 0xA0 SHL SUB AND PUSH1 0x0 SWAP1 DUP2 MSTORE PUSH1 0x4 PUSH1 0x20 MSTORE PUSH1 0x40 SWAP1 KECCAK256 SLOAD PUSH1 0xFF AND SWAP1 JUMP JUMPDEST PUSH1 0x11 SLOAD PUSH2 0x224 JUMP JUMPDEST PUSH2 0x224 PUSH2 0x3C0 CALLDATASIZE PUSH1 0x4 PUSH2 0x1D4B JUMP JUMPDEST PUSH1 0x1 PUSH1 0x1 PUSH1 0xA0 SHL SUB SWAP2 DUP3 AND PUSH1 0x0 SWAP1 DUP2 MSTORE PUSH1 0x3 PUSH1 0x20 SWAP1 DUP2 MSTORE PUSH1 0x40 DUP1 DUP4 KECCAK256 SWAP4 SWAP1 SWAP5 AND DUP3 MSTORE SWAP2 SWAP1 SWAP2 MSTORE KECCAK256 SLOAD SWAP1 JUMP JUMPDEST PUSH2 0x29B PUSH2 0x3F9 CALLDATASIZE PUSH1 0x4 PUSH2 0x1D31 JUMP JUMPDEST PUSH2 0x90D JUMP JUMPDEST PUSH2 0x29B PUSH2 0x40C CALLDATASIZE PUSH1 0x4 PUSH2 0x1D31 JUMP JUMPDEST PUSH2 0xA60 JUMP JUMPDEST PUSH2 0x29B PUSH2 0x41F CALLDATASIZE PUSH1 0x4 PUSH2 0x1D31 JUMP JUMPDEST PUSH2 0xB4A JUMP JUMPDEST PUSH2 0x29B PUSH2 0x432 CALLDATASIZE PUSH1 0x4 PUSH2 0x1E2C JUMP JUMPDEST PUSH2 0xD39 JUMP JUMPDEST PUSH1 0x60 PUSH1 0x6 DUP1 SLOAD PUSH2 0x446 SWAP1 PUSH2 0x1F4D JUMP JUMPDEST DUP1 PUSH1 0x1F ADD PUSH1 0x20 DUP1 SWAP2 DIV MUL PUSH1 0x20 ADD PUSH1 0x40 MLOAD SWAP1 DUP2 ADD PUSH1 0x40 MSTORE DUP1 SWAP3 SWAP2 SWAP1 DUP2 DUP2 MSTORE PUSH1 0x20 ADD DUP3 DUP1 SLOAD PUSH2 0x472 SWAP1 PUSH2 0x1F4D JUMP JUMPDEST DUP1 ISZERO PUSH2 0x4BF JUMPI DUP1 PUSH1 0x1F LT PUSH2 0x494 JUMPI PUSH2 0x100 DUP1 DUP4 SLOAD DIV MUL DUP4 MSTORE SWAP2 PUSH1 0x20 ADD SWAP2 PUSH2 0x4BF JUMP JUMPDEST DUP3 ADD SWAP2 SWAP1 PUSH1 0x0 MSTORE PUSH1 0x20 PUSH1 0x0 KECCAK256 SWAP1 JUMPDEST DUP2 SLOAD DUP2 MSTORE SWAP1 PUSH1 0x1 ADD SWAP1 PUSH1 0x20 ADD DUP1 DUP4 GT PUSH2 0x4A2 JUMPI DUP3 SWAP1 SUB PUSH1 0x1F AND DUP3 ADD SWAP2 JUMPDEST POP POP POP POP POP SWAP1 POP SWAP1 JUMP JUMPDEST PUSH1 0x0 PUSH2 0x4D6 CALLER DUP5 DUP5 PUSH2 0xDC8 JUMP JUMPDEST POP PUSH1 0x1 JUMPDEST SWAP3 SWAP2 POP POP JUMP JUMPDEST PUSH1 0x0 PUSH2 0x4ED DUP5 DUP5 DUP5 PUSH2 0xEF0 JUMP JUMPDEST PUSH2 0x53F DUP5 CALLER PUSH2 0x53A DUP6 PUSH1 0x40 MLOAD DUP1 PUSH1 0x60 ADD PUSH1 0x40 MSTORE DUP1 PUSH1 0x2A DUP2 MSTORE PUSH1 0x20 ADD PUSH2 0x1FE1 PUSH1 0x2A SWAP2 CODECOPY PUSH1 0x1 PUSH1 0x1 PUSH1 0xA0 SHL SUB DUP11 AND PUSH1 0x0 SWAP1 DUP2 MSTORE PUSH1 0x3 PUSH1 0x20 SWAP1 DUP2 MSTORE PUSH1 0x40 DUP1 DUP4 KECCAK256 CALLER DUP5 MSTORE SWAP1 SWAP2 MSTORE SWAP1 KECCAK256 SLOAD SWAP2 SWAP1 PUSH2 0x11F7 JUMP JUMPDEST PUSH2 0xDC8 JUMP JUMPDEST POP PUSH1 0x1 SWAP4 SWAP3 POP POP POP JUMP JUMPDEST PUSH1 0x0 PUSH1 0xE SLOAD DUP3 GT ISZERO PUSH2 0x5B5 JUMPI PUSH1 0x40 MLOAD PUSH3 0x461BCD PUSH1 0xE5 SHL DUP2 MSTORE PUSH1 0x20 PUSH1 0x4 DUP3 ADD MSTORE PUSH1 0x2A PUSH1 0x24 DUP3 ADD MSTORE PUSH32 0x416D6F756E74206D757374206265206C657373207468616E20746F74616C2072 PUSH1 0x44 DUP3 ADD MSTORE PUSH10 0x65666C656374696F6E73 PUSH1 0xB0 SHL PUSH1 0x64 DUP3 ADD MSTORE PUSH1 0x84 ADD JUMPDEST PUSH1 0x40 MLOAD DUP1 SWAP2 SUB SWAP1 REVERT JUMPDEST PUSH1 0x0 PUSH2 0x5BF PUSH2 0x1231 JUMP JUMPDEST SWAP1 POP PUSH2 0x5CB DUP4 DUP3 PUSH2 0x1254 JUMP JUMPDEST SWAP4 SWAP3 POP POP POP JUMP JUMPDEST CALLER PUSH1 0x0 DUP2 DUP2 MSTORE PUSH1 0x3 PUSH1 0x20 SWAP1 DUP2 MSTORE PUSH1 0x40 DUP1 DUP4 KECCAK256 PUSH1 0x1 PUSH1 0x1 PUSH1 0xA0 SHL SUB DUP8 AND DUP5 MSTORE SWAP1 SWAP2 MSTORE DUP2 KECCAK256 SLOAD SWAP1 SWAP2 PUSH2 0x4D6 SWAP2 DUP6 SWAP1 PUSH2 0x53A SWAP1 DUP7 PUSH2 0x1296 JUMP JUMPDEST CALLER PUSH1 0x0 DUP2 DUP2 MSTORE PUSH1 0x4 PUSH1 0x20 MSTORE PUSH1 0x40 SWAP1 KECCAK256 SLOAD PUSH1 0xFF AND ISZERO PUSH2 0x67D JUMPI PUSH1 0x40 MLOAD PUSH3 0x461BCD PUSH1 0xE5 SHL DUP2 MSTORE PUSH1 0x20 PUSH1 0x4 DUP3 ADD MSTORE PUSH1 0x2C PUSH1 0x24 DUP3 ADD MSTORE PUSH32 0x4578636C75646564206164647265737365732063616E6E6F742063616C6C2074 PUSH1 0x44 DUP3 ADD MSTORE PUSH12 0x3434B990333AB731BA34B7B7 PUSH1 0xA1 SHL PUSH1 0x64 DUP3 ADD MSTORE PUSH1 0x84 ADD PUSH2 0x5AC JUMP JUMPDEST PUSH1 0x0 PUSH2 0x688 DUP4 PUSH2 0x12F5 JUMP JUMPDEST POP POP POP PUSH1 0x1 PUSH1 0x1 PUSH1 0xA0 SHL SUB DUP7 AND PUSH1 0x0 SWAP1 DUP2 MSTORE PUSH1 0x1 PUSH1 0x20 MSTORE PUSH1 0x40 SWAP1 KECCAK256 SLOAD SWAP4 SWAP5 POP PUSH2 0x6B6 SWAP4 SWAP3 POP DUP5 SWAP2 POP POP PUSH2 0x1379 JUMP JUMPDEST PUSH1 0x1 PUSH1 0x1 PUSH1 0xA0 SHL SUB DUP4 AND PUSH1 0x0 SWAP1 DUP2 MSTORE PUSH1 0x1 PUSH1 0x20 MSTORE PUSH1 0x40 SWAP1 KECCAK256 SSTORE PUSH1 0xE SLOAD PUSH2 0x6DC SWAP1 DUP3 PUSH2 0x1379 JUMP JUMPDEST PUSH1 0xE SSTORE PUSH1 0xF SLOAD PUSH2 0x6EC SWAP1 DUP5 PUSH2 0x1296 JUMP JUMPDEST PUSH1 0xF SSTORE POP POP POP JUMP JUMPDEST PUSH1 0x0 PUSH1 0xD SLOAD DUP4 GT ISZERO PUSH2 0x748 JUMPI PUSH1 0x40 MLOAD PUSH3 0x461BCD PUSH1 0xE5 SHL DUP2 MSTORE PUSH1 0x20 PUSH1 0x4 DUP3 ADD MSTORE PUSH1 0x1F PUSH1 0x24 DUP3 ADD MSTORE PUSH32 0x416D6F756E74206D757374206265206C657373207468616E20737570706C7900 PUSH1 0x44 DUP3 ADD MSTORE PUSH1 0x64 ADD PUSH2 0x5AC JUMP JUMPDEST DUP2 PUSH2 0x768 JUMPI PUSH1 0x0 PUSH2 0x758 DUP5 PUSH2 0x12F5 JUMP JUMPDEST POP SWAP5 SWAP7 POP PUSH2 0x4DA SWAP6 POP POP POP POP POP POP JUMP JUMPDEST PUSH1 0x0 PUSH2 0x773 DUP5 PUSH2 0x12F5 JUMP JUMPDEST POP SWAP4 SWAP7 POP PUSH2 0x4DA SWAP6 POP POP POP POP POP POP JUMP JUMPDEST PUSH1 0x0 SLOAD PUSH1 0x1 PUSH1 0x1 PUSH1 0xA0 SHL SUB AND CALLER EQ PUSH2 0x7AD JUMPI PUSH1 0x40 MLOAD PUSH3 0x461BCD PUSH1 0xE5 SHL DUP2 MSTORE PUSH1 0x4 ADD PUSH2 0x5AC SWAP1 PUSH2 0x1EAA JUMP JUMPDEST PUSH1 0x9 DUP1 SLOAD PUSH1 0x1 PUSH1 0x1 PUSH1 0xA0 SHL SUB NOT AND PUSH1 0x1 PUSH1 0x1 PUSH1 0xA0 SHL SUB SWAP3 SWAP1 SWAP3 AND SWAP2 SWAP1 SWAP2 OR SWAP1 SSTORE JUMP JUMPDEST PUSH1 0x1 PUSH1 0x1 PUSH1 0xA0 SHL SUB DUP2 AND PUSH1 0x0 SWAP1 DUP2 MSTORE PUSH1 0x4 PUSH1 0x20 MSTORE PUSH1 0x40 DUP2 KECCAK256 SLOAD PUSH1 0xFF AND ISZERO PUSH2 0x80C JUMPI POP PUSH1 0x1 PUSH1 0x1 PUSH1 0xA0 SHL SUB AND PUSH1 0x0 SWAP1 DUP2 MSTORE PUSH1 0x2 PUSH1 0x20 MSTORE PUSH1 0x40 SWAP1 KECCAK256 SLOAD SWAP1 JUMP JUMPDEST PUSH1 0x1 PUSH1 0x1 PUSH1 0xA0 SHL SUB DUP3 AND PUSH1 0x0 SWAP1 DUP2 MSTORE PUSH1 0x1 PUSH1 0x20 MSTORE PUSH1 0x40 SWAP1 KECCAK256 SLOAD PUSH2 0x4DA SWAP1 PUSH2 0x549 JUMP JUMPDEST PUSH1 0x0 SLOAD PUSH1 0x1 PUSH1 0x1 PUSH1 0xA0 SHL SUB AND CALLER EQ PUSH2 0x858 JUMPI PUSH1 0x40 MLOAD PUSH3 0x461BCD PUSH1 0xE5 SHL DUP2 MSTORE PUSH1 0x4 ADD PUSH2 0x5AC SWAP1 PUSH2 0x1EAA JUMP JUMPDEST PUSH1 0x0 DUP1 SLOAD PUSH1 0x40 MLOAD PUSH1 0x1 PUSH1 0x1 PUSH1 0xA0 SHL SUB SWAP1 SWAP2 AND SWAP1 PUSH32 0x8BE0079C531659141344CD1FD0A4F28419497F9722A3DAAFE3B4186F6B6457E0 SWAP1 DUP4 SWAP1 LOG3 PUSH1 0x0 DUP1 SLOAD PUSH1 0x1 PUSH1 0x1 PUSH1 0xA0 SHL SUB NOT AND SWAP1 SSTORE JUMP JUMPDEST PUSH1 0x60 PUSH1 0x7 DUP1 SLOAD PUSH2 0x446 SWAP1 PUSH2 0x1F4D JUMP JUMPDEST PUSH1 0x0 PUSH2 0x4D6 CALLER DUP5 PUSH2 0x53A DUP6 PUSH1 0x40 MLOAD DUP1 PUSH1 0x60 ADD PUSH1 0x40 MSTORE DUP1 PUSH1 0x27 DUP2 MSTORE PUSH1 0x20 ADD PUSH2 0x1FBA PUSH1 0x27 SWAP2 CODECOPY CALLER PUSH1 0x0 SWAP1 DUP2 MSTORE PUSH1 0x3 PUSH1 0x20 SWAP1 DUP2 MSTORE PUSH1 0x40 DUP1 DUP4 KECCAK256 PUSH1 0x1 PUSH1 0x1 PUSH1 0xA0 SHL SUB DUP14 AND DUP5 MSTORE SWAP1 SWAP2 MSTORE SWAP1 KECCAK256 SLOAD SWAP2 SWAP1 PUSH2 0x11F7 JUMP JUMPDEST PUSH1 0x0 PUSH2 0x4D6 CALLER DUP5 DUP5 PUSH2 0xEF0 JUMP JUMPDEST PUSH1 0x0 SLOAD PUSH1 0x1 PUSH1 0x1 PUSH1 0xA0 SHL SUB AND CALLER EQ PUSH2 0x937 JUMPI PUSH1 0x40 MLOAD PUSH3 0x461BCD PUSH1 0xE5 SHL DUP2 MSTORE PUSH1 0x4 ADD PUSH2 0x5AC SWAP1 PUSH2 0x1EAA JUMP JUMPDEST PUSH1 0x1 PUSH1 0x1 PUSH1 0xA0 SHL SUB DUP2 AND PUSH1 0x0 SWAP1 DUP2 MSTORE PUSH1 0x4 PUSH1 0x20 MSTORE PUSH1 0x40 SWAP1 KECCAK256 SLOAD PUSH1 0xFF AND ISZERO PUSH2 0x9A0 JUMPI PUSH1 0x40 MLOAD PUSH3 0x461BCD PUSH1 0xE5 SHL DUP2 MSTORE PUSH1 0x20 PUSH1 0x4 DUP3 ADD MSTORE PUSH1 0x1B PUSH1 0x24 DUP3 ADD MSTORE PUSH32 0x4163636F756E7420697320616C7265616479206578636C756465640000000000 PUSH1 0x44 DUP3 ADD MSTORE PUSH1 0x64 ADD PUSH2 0x5AC JUMP JUMPDEST PUSH1 0x1 PUSH1 0x1 PUSH1 0xA0 SHL SUB DUP2 AND PUSH1 0x0 SWAP1 DUP2 MSTORE PUSH1 0x1 PUSH1 0x20 MSTORE PUSH1 0x40 SWAP1 KECCAK256 SLOAD ISZERO PUSH2 0x9FA JUMPI PUSH1 0x1 PUSH1 0x1 PUSH1 0xA0 SHL SUB DUP2 AND PUSH1 0x0 SWAP1 DUP2 MSTORE PUSH1 0x1 PUSH1 0x20 MSTORE PUSH1 0x40 SWAP1 KECCAK256 SLOAD PUSH2 0x9E0 SWAP1 PUSH2 0x549 JUMP JUMPDEST PUSH1 0x1 PUSH1 0x1 PUSH1 0xA0 SHL SUB DUP3 AND PUSH1 0x0 SWAP1 DUP2 MSTORE PUSH1 0x2 PUSH1 0x20 MSTORE PUSH1 0x40 SWAP1 KECCAK256 SSTORE JUMPDEST PUSH1 0x1 PUSH1 0x1 PUSH1 0xA0 SHL SUB AND PUSH1 0x0 DUP2 DUP2 MSTORE PUSH1 0x4 PUSH1 0x20 MSTORE PUSH1 0x40 DUP2 KECCAK256 DUP1 SLOAD PUSH1 0xFF NOT AND PUSH1 0x1 SWAP1 DUP2 OR SWAP1 SWAP2 SSTORE PUSH1 0x5 DUP1 SLOAD SWAP2 DUP3 ADD DUP2 SSTORE SWAP1 SWAP2 MSTORE PUSH32 0x36B6384B5ECA791C62761152D0C79BB0604C104A5FB6F4EB0703F3154BB3DB0 ADD DUP1 SLOAD PUSH1 0x1 PUSH1 0x1 PUSH1 0xA0 SHL SUB NOT AND SWAP1 SWAP2 OR SWAP1 SSTORE JUMP JUMPDEST PUSH1 0x0 SLOAD PUSH1 0x1 PUSH1 0x1 PUSH1 0xA0 SHL SUB AND CALLER EQ PUSH2 0xA8A JUMPI PUSH1 0x40 MLOAD PUSH3 0x461BCD PUSH1 0xE5 SHL DUP2 MSTORE PUSH1 0x4 ADD PUSH2 0x5AC SWAP1 PUSH2 0x1EAA JUMP JUMPDEST PUSH1 0x1 PUSH1 0x1 PUSH1 0xA0 SHL SUB DUP2 AND PUSH2 0xAEF JUMPI PUSH1 0x40 MLOAD PUSH3 0x461BCD PUSH1 0xE5 SHL DUP2 MSTORE PUSH1 0x20 PUSH1 0x4 DUP3 ADD MSTORE PUSH1 0x26 PUSH1 0x24 DUP3 ADD MSTORE PUSH32 0x4F776E61626C653A206E6577206F776E657220697320746865207A65726F2061 PUSH1 0x44 DUP3 ADD MSTORE PUSH6 0x646472657373 PUSH1 0xD0 SHL PUSH1 0x64 DUP3 ADD MSTORE PUSH1 0x84 ADD PUSH2 0x5AC JUMP JUMPDEST PUSH1 0x0 DUP1 SLOAD PUSH1 0x40 MLOAD PUSH1 0x1 PUSH1 0x1 PUSH1 0xA0 SHL SUB DUP1 DUP6 AND SWAP4 SWAP3 AND SWAP2 PUSH32 0x8BE0079C531659141344CD1FD0A4F28419497F9722A3DAAFE3B4186F6B6457E0 SWAP2 LOG3 PUSH1 0x0 DUP1 SLOAD PUSH1 0x1 PUSH1 0x1 PUSH1 0xA0 SHL SUB NOT AND PUSH1 0x1 PUSH1 0x1 PUSH1 0xA0 SHL SUB SWAP3 SWAP1 SWAP3 AND SWAP2 SWAP1 SWAP2 OR SWAP1 SSTORE JUMP JUMPDEST PUSH1 0x0 SLOAD PUSH1 0x1 PUSH1 0x1 PUSH1 0xA0 SHL SUB AND CALLER EQ PUSH2 0xB74 JUMPI PUSH1 0x40 MLOAD PUSH3 0x461BCD PUSH1 0xE5 SHL DUP2 MSTORE PUSH1 0x4 ADD PUSH2 0x5AC SWAP1 PUSH2 0x1EAA JUMP JUMPDEST PUSH1 0x1 PUSH1 0x1 PUSH1 0xA0 SHL SUB DUP2 AND PUSH1 0x0 SWAP1 DUP2 MSTORE PUSH1 0x4 PUSH1 0x20 MSTORE PUSH1 0x40 SWAP1 KECCAK256 SLOAD PUSH1 0xFF AND PUSH2 0xBDC JUMPI PUSH1 0x40 MLOAD PUSH3 0x461BCD PUSH1 0xE5 SHL DUP2 MSTORE PUSH1 0x20 PUSH1 0x4 DUP3 ADD MSTORE PUSH1 0x1B PUSH1 0x24 DUP3 ADD MSTORE PUSH32 0x4163636F756E7420697320616C726561647920696E636C756465640000000000 PUSH1 0x44 DUP3 ADD MSTORE PUSH1 0x64 ADD PUSH2 0x5AC JUMP JUMPDEST PUSH1 0x0 JUMPDEST PUSH1 0x5 SLOAD DUP2 LT ISZERO PUSH2 0xD35 JUMPI DUP2 PUSH1 0x1 PUSH1 0x1 PUSH1 0xA0 SHL SUB AND PUSH1 0x5 DUP3 DUP2 SLOAD DUP2 LT PUSH2 0xC14 JUMPI PUSH4 0x4E487B71 PUSH1 0xE0 SHL PUSH1 0x0 MSTORE PUSH1 0x32 PUSH1 0x4 MSTORE PUSH1 0x24 PUSH1 0x0 REVERT JUMPDEST PUSH1 0x0 SWAP2 DUP3 MSTORE PUSH1 0x20 SWAP1 SWAP2 KECCAK256 ADD SLOAD PUSH1 0x1 PUSH1 0x1 PUSH1 0xA0 SHL SUB AND EQ ISZERO PUSH2 0xD23 JUMPI PUSH1 0x5 DUP1 SLOAD PUSH2 0xC3F SWAP1 PUSH1 0x1 SWAP1 PUSH2 0x1F36 JUMP JUMPDEST DUP2 SLOAD DUP2 LT PUSH2 0xC5D JUMPI PUSH4 0x4E487B71 PUSH1 0xE0 SHL PUSH1 0x0 MSTORE PUSH1 0x32 PUSH1 0x4 MSTORE PUSH1 0x24 PUSH1 0x0 REVERT JUMPDEST PUSH1 0x0 SWAP2 DUP3 MSTORE PUSH1 0x20 SWAP1 SWAP2 KECCAK256 ADD SLOAD PUSH1 0x5 DUP1 SLOAD PUSH1 0x1 PUSH1 0x1 PUSH1 0xA0 SHL SUB SWAP1 SWAP3 AND SWAP2 DUP4 SWAP1 DUP2 LT PUSH2 0xC97 JUMPI PUSH4 0x4E487B71 PUSH1 0xE0 SHL PUSH1 0x0 MSTORE PUSH1 0x32 PUSH1 0x4 MSTORE PUSH1 0x24 PUSH1 0x0 REVERT JUMPDEST PUSH1 0x0 SWAP2 DUP3 MSTORE PUSH1 0x20 DUP1 DUP4 KECCAK256 SWAP2 SWAP1 SWAP2 ADD DUP1 SLOAD PUSH1 0x1 PUSH1 0x1 PUSH1 0xA0 SHL SUB NOT AND PUSH1 0x1 PUSH1 0x1 PUSH1 0xA0 SHL SUB SWAP5 DUP6 AND OR SWAP1 SSTORE SWAP2 DUP5 AND DUP2 MSTORE PUSH1 0x2 DUP3 MSTORE PUSH1 0x40 DUP1 DUP3 KECCAK256 DUP3 SWAP1 SSTORE PUSH1 0x4 SWAP1 SWAP3 MSTORE KECCAK256 DUP1 SLOAD PUSH1 0xFF NOT AND SWAP1 SSTORE PUSH1 0x5 DUP1 SLOAD DUP1 PUSH2 0xCFD JUMPI PUSH4 0x4E487B71 PUSH1 0xE0 SHL PUSH1 0x0 MSTORE PUSH1 0x31 PUSH1 0x4 MSTORE PUSH1 0x24 PUSH1 0x0 REVERT JUMPDEST PUSH1 0x0 DUP3 DUP2 MSTORE PUSH1 0x20 SWAP1 KECCAK256 DUP2 ADD PUSH1 0x0 NOT SWAP1 DUP2 ADD DUP1 SLOAD PUSH1 0x1 PUSH1 0x1 PUSH1 0xA0 SHL SUB NOT AND SWAP1 SSTORE ADD SWAP1 SSTORE POP POP JUMP JUMPDEST DUP1 PUSH2 0xD2D DUP2 PUSH2 0x1F88 JUMP JUMPDEST SWAP2 POP POP PUSH2 0xBDF JUMP JUMPDEST POP POP JUMP JUMPDEST PUSH1 0x0 SLOAD PUSH1 0x1 PUSH1 0x1 PUSH1 0xA0 SHL SUB AND CALLER EQ PUSH2 0xD63 JUMPI PUSH1 0x40 MLOAD PUSH3 0x461BCD PUSH1 0xE5 SHL DUP2 MSTORE PUSH1 0x4 ADD PUSH2 0x5AC SWAP1 PUSH2 0x1EAA JUMP JUMPDEST PUSH1 0x64 DUP4 LT DUP1 ISZERO PUSH2 0xD73 JUMPI POP PUSH1 0x64 DUP3 LT JUMPDEST DUP1 ISZERO PUSH2 0xD7F JUMPI POP PUSH1 0x64 DUP2 LT JUMPDEST PUSH2 0xD88 JUMPI PUSH1 0x0 DUP1 REVERT JUMPDEST PUSH2 0xD93 DUP4 PUSH1 0x64 PUSH2 0x1F17 JUMP JUMPDEST PUSH1 0x12 SSTORE PUSH2 0xDA1 DUP3 PUSH1 0x64 PUSH2 0x1F17 JUMP JUMPDEST PUSH1 0x13 SSTORE PUSH2 0xDAF DUP2 PUSH1 0x64 PUSH2 0x1F17 JUMP JUMPDEST PUSH1 0x14 DUP2 SWAP1 SSTORE PUSH1 0x12 SLOAD PUSH1 0x15 SSTORE PUSH1 0x13 SLOAD PUSH1 0x16 SSTORE PUSH1 0x17 SSTORE POP POP POP JUMP JUMPDEST PUSH1 0x1 PUSH1 0x1 PUSH1 0xA0 SHL SUB DUP4 AND PUSH2 0xE2D JUMPI PUSH1 0x40 MLOAD PUSH3 0x461BCD PUSH1 0xE5 SHL DUP2 MSTORE PUSH1 0x20 PUSH1 0x4 DUP3 ADD MSTORE PUSH1 0x26 PUSH1 0x24 DUP3 ADD MSTORE PUSH32 0x544F4B454E32303A20617070726F76652066726F6D20746865207A65726F2061 PUSH1 0x44 DUP3 ADD MSTORE PUSH6 0x646472657373 PUSH1 0xD0 SHL PUSH1 0x64 DUP3 ADD MSTORE PUSH1 0x84 ADD PUSH2 0x5AC JUMP JUMPDEST PUSH1 0x1 PUSH1 0x1 PUSH1 0xA0 SHL SUB DUP3 AND PUSH2 0xE8F JUMPI PUSH1 0x40 MLOAD PUSH3 0x461BCD PUSH1 0xE5 SHL DUP2 MSTORE PUSH1 0x20 PUSH1 0x4 DUP3 ADD MSTORE PUSH1 0x24 DUP1 DUP3 ADD MSTORE PUSH32 0x544F4B454E32303A20617070726F766520746F20746865207A65726F20616464 PUSH1 0x44 DUP3 ADD MSTORE PUSH4 0x72657373 PUSH1 0xE0 SHL PUSH1 0x64 DUP3 ADD MSTORE PUSH1 0x84 ADD PUSH2 0x5AC JUMP JUMPDEST PUSH1 0x1 PUSH1 0x1 PUSH1 0xA0 SHL SUB DUP4 DUP2 AND PUSH1 0x0 DUP2 DUP2 MSTORE PUSH1 0x3 PUSH1 0x20 SWAP1 DUP2 MSTORE PUSH1 0x40 DUP1 DUP4 KECCAK256 SWAP5 DUP8 AND DUP1 DUP5 MSTORE SWAP5 DUP3 MSTORE SWAP2 DUP3 SWAP1 KECCAK256 DUP6 SWAP1 SSTORE SWAP1 MLOAD DUP5 DUP2 MSTORE PUSH32 0x8C5BE1E5EBEC7D5BD14F71427D1E84F3DD0314C0F7B2291E5B200AC8C7C3B925 SWAP2 ADD PUSH1 0x40 MLOAD DUP1 SWAP2 SUB SWAP1 LOG3 POP POP POP JUMP JUMPDEST PUSH1 0x1 PUSH1 0x1 PUSH1 0xA0 SHL SUB DUP4 AND PUSH2 0xF56 JUMPI PUSH1 0x40 MLOAD PUSH3 0x461BCD PUSH1 0xE5 SHL DUP2 MSTORE PUSH1 0x20 PUSH1 0x4 DUP3 ADD MSTORE PUSH1 0x27 PUSH1 0x24 DUP3 ADD MSTORE PUSH32 0x544F4B454E32303A207472616E736665722066726F6D20746865207A65726F20 PUSH1 0x44 DUP3 ADD MSTORE PUSH7 0x61646472657373 PUSH1 0xC8 SHL PUSH1 0x64 DUP3 ADD MSTORE PUSH1 0x84 ADD PUSH2 0x5AC JUMP JUMPDEST PUSH1 0x1 PUSH1 0x1 PUSH1 0xA0 SHL SUB DUP3 AND PUSH2 0xFBA JUMPI PUSH1 0x40 MLOAD PUSH3 0x461BCD PUSH1 0xE5 SHL DUP2 MSTORE PUSH1 0x20 PUSH1 0x4 DUP3 ADD MSTORE PUSH1 0x25 PUSH1 0x24 DUP3 ADD MSTORE PUSH32 0x544F4B454E32303A207472616E7366657220746F20746865207A65726F206164 PUSH1 0x44 DUP3 ADD MSTORE PUSH5 0x6472657373 PUSH1 0xD8 SHL PUSH1 0x64 DUP3 ADD MSTORE PUSH1 0x84 ADD PUSH2 0x5AC JUMP JUMPDEST PUSH1 0x0 DUP2 GT PUSH2 0x101C JUMPI PUSH1 0x40 MLOAD PUSH3 0x461BCD PUSH1 0xE5 SHL DUP2 MSTORE PUSH1 0x20 PUSH1 0x4 DUP3 ADD MSTORE PUSH1 0x29 PUSH1 0x24 DUP3 ADD MSTORE PUSH32 0x5472616E7366657220616D6F756E74206D757374206265206772656174657220 PUSH1 0x44 DUP3 ADD MSTORE PUSH9 0x7468616E207A65726F PUSH1 0xB8 SHL PUSH1 0x64 DUP3 ADD MSTORE PUSH1 0x84 ADD PUSH2 0x5AC JUMP JUMPDEST PUSH1 0x9 SLOAD PUSH1 0x1 SWAP1 PUSH1 0x1 PUSH1 0x1 PUSH1 0xA0 SHL SUB DUP6 DUP2 AND SWAP2 AND EQ DUP1 PUSH2 0x1048 JUMPI POP PUSH1 0x9 SLOAD PUSH1 0x1 PUSH1 0x1 PUSH1 0xA0 SHL SUB DUP5 DUP2 AND SWAP2 AND EQ JUMPDEST DUP1 PUSH2 0x106B JUMPI POP PUSH1 0x1 PUSH1 0x1 PUSH1 0xA0 SHL SUB DUP4 AND PUSH1 0x0 SWAP1 DUP2 MSTORE PUSH1 0x4 PUSH1 0x20 MSTORE PUSH1 0x40 SWAP1 KECCAK256 SLOAD PUSH1 0xFF AND JUMPDEST ISZERO PUSH2 0x1074 JUMPI POP PUSH1 0x0 JUMPDEST DUP1 PUSH2 0x1081 JUMPI PUSH2 0x1081 PUSH2 0x13BB JUMP JUMPDEST PUSH1 0x1 PUSH1 0x1 PUSH1 0xA0 SHL SUB DUP5 AND PUSH1 0x0 SWAP1 DUP2 MSTORE PUSH1 0x4 PUSH1 0x20 MSTORE PUSH1 0x40 SWAP1 KECCAK256 SLOAD PUSH1 0xFF AND DUP1 ISZERO PUSH2 0x10C2 JUMPI POP PUSH1 0x1 PUSH1 0x1 PUSH1 0xA0 SHL SUB DUP4 AND PUSH1 0x0 SWAP1 DUP2 MSTORE PUSH1 0x4 PUSH1 0x20 MSTORE PUSH1 0x40 SWAP1 KECCAK256 SLOAD PUSH1 0xFF AND ISZERO JUMPDEST ISZERO PUSH2 0x10D7 JUMPI PUSH2 0x10D2 DUP5 DUP5 DUP5 PUSH2 0x1400 JUMP JUMPDEST PUSH2 0x11D5 JUMP JUMPDEST PUSH1 0x1 PUSH1 0x1 PUSH1 0xA0 SHL SUB DUP5 AND PUSH1 0x0 SWAP1 DUP2 MSTORE PUSH1 0x4 PUSH1 0x20 MSTORE PUSH1 0x40 SWAP1 KECCAK256 SLOAD PUSH1 0xFF AND ISZERO DUP1 ISZERO PUSH2 0x1118 JUMPI POP PUSH1 0x1 PUSH1 0x1 PUSH1 0xA0 SHL SUB DUP4 AND PUSH1 0x0 SWAP1 DUP2 MSTORE PUSH1 0x4 PUSH1 0x20 MSTORE PUSH1 0x40 SWAP1 KECCAK256 SLOAD PUSH1 0xFF AND JUMPDEST ISZERO PUSH2 0x1128 JUMPI PUSH2 0x10D2 DUP5 DUP5 DUP5 PUSH2 0x14C4 JUMP JUMPDEST PUSH1 0x1 PUSH1 0x1 PUSH1 0xA0 SHL SUB DUP5 AND PUSH1 0x0 SWAP1 DUP2 MSTORE PUSH1 0x4 PUSH1 0x20 MSTORE PUSH1 0x40 SWAP1 KECCAK256 SLOAD PUSH1 0xFF AND ISZERO DUP1 ISZERO PUSH2 0x116A JUMPI POP PUSH1 0x1 PUSH1 0x1 PUSH1 0xA0 SHL SUB DUP4 AND PUSH1 0x0 SWAP1 DUP2 MSTORE PUSH1 0x4 PUSH1 0x20 MSTORE PUSH1 0x40 SWAP1 KECCAK256 SLOAD PUSH1 0xFF AND ISZERO JUMPDEST ISZERO PUSH2 0x117A JUMPI PUSH2 0x10D2 DUP5 DUP5 DUP5 PUSH2 0x1516 JUMP JUMPDEST PUSH1 0x1 PUSH1 0x1 PUSH1 0xA0 SHL SUB DUP5 AND PUSH1 0x0 SWAP1 DUP2 MSTORE PUSH1 0x4 PUSH1 0x20 MSTORE PUSH1 0x40 SWAP1 KECCAK256 SLOAD PUSH1 0xFF AND DUP1 ISZERO PUSH2 0x11BA JUMPI POP PUSH1 0x1 PUSH1 0x1 PUSH1 0xA0 SHL SUB DUP4 AND PUSH1 0x0 SWAP1 DUP2 MSTORE PUSH1 0x4 PUSH1 0x20 MSTORE PUSH1 0x40 SWAP1 KECCAK256 SLOAD PUSH1 0xFF AND JUMPDEST ISZERO PUSH2 0x11CA JUMPI PUSH2 0x10D2 DUP5 DUP5 DUP5 PUSH2 0x1567 JUMP JUMPDEST PUSH2 0x11D5 DUP5 DUP5 DUP5 PUSH2 0x1516 JUMP JUMPDEST DUP1 PUSH2 0x11F1 JUMPI PUSH2 0x11F1 PUSH1 0x15 SLOAD PUSH1 0x12 SSTORE PUSH1 0x16 SLOAD PUSH1 0x13 SSTORE PUSH1 0x17 SLOAD PUSH1 0x14 SSTORE JUMP JUMPDEST POP POP POP POP JUMP JUMPDEST PUSH1 0x0 DUP2 DUP5 DUP5 GT ISZERO PUSH2 0x121B JUMPI PUSH1 0x40 MLOAD PUSH3 0x461BCD PUSH1 0xE5 SHL DUP2 MSTORE PUSH1 0x4 ADD PUSH2 0x5AC SWAP2 SWAP1 PUSH2 0x1E57 JUMP JUMPDEST POP PUSH1 0x0 PUSH2 0x1228 DUP5 DUP7 PUSH2 0x1F36 JUMP JUMPDEST SWAP6 SWAP5 POP POP POP POP POP JUMP JUMPDEST PUSH1 0x0 DUP1 PUSH1 0x0 PUSH2 0x123E PUSH2 0x15BA JUMP JUMPDEST SWAP1 SWAP3 POP SWAP1 POP PUSH2 0x124D DUP3 DUP3 PUSH2 0x1254 JUMP JUMPDEST SWAP3 POP POP POP SWAP1 JUMP JUMPDEST PUSH1 0x0 PUSH2 0x5CB DUP4 DUP4 PUSH1 0x40 MLOAD DUP1 PUSH1 0x40 ADD PUSH1 0x40 MSTORE DUP1 PUSH1 0x1A DUP2 MSTORE PUSH1 0x20 ADD PUSH32 0x536166654D6174683A206469766973696F6E206279207A65726F000000000000 DUP2 MSTORE POP PUSH2 0x1774 JUMP JUMPDEST PUSH1 0x0 DUP1 PUSH2 0x12A3 DUP4 DUP6 PUSH2 0x1EDF JUMP JUMPDEST SWAP1 POP DUP4 DUP2 LT ISZERO PUSH2 0x5CB JUMPI PUSH1 0x40 MLOAD PUSH3 0x461BCD PUSH1 0xE5 SHL DUP2 MSTORE PUSH1 0x20 PUSH1 0x4 DUP3 ADD MSTORE PUSH1 0x1B PUSH1 0x24 DUP3 ADD MSTORE PUSH32 0x536166654D6174683A206164646974696F6E206F766572666C6F770000000000 PUSH1 0x44 DUP3 ADD MSTORE PUSH1 0x64 ADD PUSH2 0x5AC JUMP JUMPDEST PUSH1 0x0 DUP1 PUSH1 0x0 DUP1 PUSH1 0x0 DUP1 PUSH1 0x0 DUP1 PUSH1 0x0 DUP1 PUSH2 0x1316 DUP12 PUSH1 0x12 SLOAD PUSH1 0x13 SLOAD PUSH1 0x14 SLOAD PUSH2 0x17A2 JUMP JUMPDEST SWAP3 POP SWAP3 POP SWAP3 POP PUSH1 0x0 PUSH2 0x132A DUP13 DUP6 DUP6 DUP6 PUSH2 0x1821 JUMP JUMPDEST SWAP1 POP PUSH1 0x0 PUSH2 0x1336 PUSH2 0x1231 JUMP JUMPDEST SWAP1 POP PUSH1 0x0 DUP1 PUSH2 0x1346 DUP16 DUP9 DUP6 PUSH2 0x1839 JUMP JUMPDEST SWAP2 POP SWAP2 POP PUSH1 0x0 PUSH2 0x1359 DUP4 DUP4 DUP10 DUP10 DUP9 PUSH2 0x1863 JUMP JUMPDEST SWAP3 SWAP15 POP SWAP2 SWAP13 POP SWAP11 POP SWAP2 SWAP9 POP SWAP4 SWAP7 POP SWAP2 SWAP5 POP SWAP3 POP POP POP SWAP2 SWAP4 SWAP6 SWAP8 SWAP1 SWAP3 SWAP5 SWAP7 POP JUMP JUMPDEST PUSH1 0x0 PUSH2 0x5CB DUP4 DUP4 PUSH1 0x40 MLOAD DUP1 PUSH1 0x40 ADD PUSH1 0x40 MSTORE DUP1 PUSH1 0x1E DUP2 MSTORE PUSH1 0x20 ADD PUSH32 0x536166654D6174683A207375627472616374696F6E206F766572666C6F770000 DUP2 MSTORE POP PUSH2 0x11F7 JUMP JUMPDEST PUSH1 0x12 SLOAD ISZERO DUP1 ISZERO PUSH2 0x13CB JUMPI POP PUSH1 0x13 SLOAD ISZERO JUMPDEST DUP1 ISZERO PUSH2 0x13D7 JUMPI POP PUSH1 0x14 SLOAD ISZERO JUMPDEST ISZERO PUSH2 0x13DE JUMPI JUMP JUMPDEST PUSH1 0x12 DUP1 SLOAD PUSH1 0x15 SSTORE PUSH1 0x13 DUP1 SLOAD PUSH1 0x16 SSTORE PUSH1 0x14 DUP1 SLOAD PUSH1 0x17 SSTORE PUSH1 0x0 SWAP3 DUP4 SWAP1 SSTORE SWAP1 DUP3 SWAP1 SSTORE SSTORE JUMP JUMPDEST PUSH1 0x0 PUSH2 0x140A PUSH2 0x1231 JUMP JUMPDEST SWAP1 POP PUSH1 0x0 DUP1 PUSH1 0x0 DUP1 PUSH1 0x0 DUP1 PUSH1 0x0 PUSH2 0x1420 DUP10 PUSH2 0x12F5 JUMP JUMPDEST SWAP7 POP SWAP7 POP SWAP7 POP SWAP7 POP SWAP7 POP SWAP7 POP SWAP7 POP PUSH1 0x0 PUSH2 0x1443 DUP10 DUP5 PUSH2 0x189F SWAP1 SWAP2 SWAP1 PUSH4 0xFFFFFFFF AND JUMP JUMPDEST SWAP1 POP PUSH2 0x1452 DUP13 DUP13 DUP13 DUP12 DUP12 PUSH2 0x191E JUMP JUMPDEST PUSH2 0x145C DUP3 DUP14 PUSH2 0x19C2 JUMP JUMPDEST PUSH2 0x1469 DUP7 DUP3 DUP7 DUP7 DUP7 PUSH2 0x1AA3 JUMP JUMPDEST DUP11 PUSH1 0x1 PUSH1 0x1 PUSH1 0xA0 SHL SUB AND DUP13 PUSH1 0x1 PUSH1 0x1 PUSH1 0xA0 SHL SUB AND PUSH32 0xDDF252AD1BE2C89B69C2B068FC378DAA952BA7F163C4A11628F55A4DF523B3EF DUP8 PUSH1 0x40 MLOAD PUSH2 0x14AE SWAP2 DUP2 MSTORE PUSH1 0x20 ADD SWAP1 JUMP JUMPDEST PUSH1 0x40 MLOAD DUP1 SWAP2 SUB SWAP1 LOG3 POP POP POP POP POP POP POP POP POP POP POP POP JUMP JUMPDEST PUSH1 0x0 PUSH2 0x14CE PUSH2 0x1231 JUMP JUMPDEST SWAP1 POP PUSH1 0x0 DUP1 PUSH1 0x0 DUP1 PUSH1 0x0 DUP1 PUSH1 0x0 PUSH2 0x14E4 DUP10 PUSH2 0x12F5 JUMP JUMPDEST SWAP7 POP SWAP7 POP SWAP7 POP SWAP7 POP SWAP7 POP SWAP7 POP SWAP7 POP PUSH1 0x0 PUSH2 0x1507 DUP10 DUP5 PUSH2 0x189F SWAP1 SWAP2 SWAP1 PUSH4 0xFFFFFFFF AND JUMP JUMPDEST SWAP1 POP PUSH2 0x1452 DUP13 DUP13 DUP8 DUP12 DUP12 PUSH2 0x1B3E JUMP JUMPDEST PUSH1 0x0 PUSH2 0x1520 PUSH2 0x1231 JUMP JUMPDEST SWAP1 POP PUSH1 0x0 DUP1 PUSH1 0x0 DUP1 PUSH1 0x0 DUP1 PUSH1 0x0 PUSH2 0x1536 DUP10 PUSH2 0x12F5 JUMP JUMPDEST SWAP7 POP SWAP7 POP SWAP7 POP SWAP7 POP SWAP7 POP SWAP7 POP SWAP7 POP PUSH1 0x0 PUSH2 0x1559 DUP10 DUP5 PUSH2 0x189F SWAP1 SWAP2 SWAP1 PUSH4 0xFFFFFFFF AND JUMP JUMPDEST SWAP1 POP PUSH2 0x1452 DUP13 DUP13 DUP11 DUP11 PUSH2 0x1BC6 JUMP JUMPDEST PUSH1 0x0 PUSH2 0x1571 PUSH2 0x1231 JUMP JUMPDEST SWAP1 POP PUSH1 0x0 DUP1 PUSH1 0x0 DUP1 PUSH1 0x0 DUP1 PUSH1 0x0 PUSH2 0x1587 DUP10 PUSH2 0x12F5 JUMP JUMPDEST SWAP7 POP SWAP7 POP SWAP7 POP SWAP7 POP SWAP7 POP SWAP7 POP SWAP7 POP PUSH1 0x0 PUSH2 0x15AA DUP10 DUP5 PUSH2 0x189F SWAP1 SWAP2 SWAP1 PUSH4 0xFFFFFFFF AND JUMP JUMPDEST SWAP1 POP PUSH2 0x1452 DUP13 DUP13 DUP13 DUP12 DUP10 DUP13 PUSH2 0x1C3A JUMP JUMPDEST PUSH1 0xE SLOAD PUSH1 0xD SLOAD PUSH1 0x0 SWAP2 DUP3 SWAP2 DUP3 JUMPDEST PUSH1 0x5 SLOAD DUP2 LT ISZERO PUSH2 0x1744 JUMPI DUP3 PUSH1 0x1 PUSH1 0x0 PUSH1 0x5 DUP5 DUP2 SLOAD DUP2 LT PUSH2 0x15F7 JUMPI PUSH4 0x4E487B71 PUSH1 0xE0 SHL PUSH1 0x0 MSTORE PUSH1 0x32 PUSH1 0x4 MSTORE PUSH1 0x24 PUSH1 0x0 REVERT JUMPDEST PUSH1 0x0 SWAP2 DUP3 MSTORE PUSH1 0x20 DUP1 DUP4 KECCAK256 SWAP1 SWAP2 ADD SLOAD PUSH1 0x1 PUSH1 0x1 PUSH1 0xA0 SHL SUB AND DUP4 MSTORE DUP3 ADD SWAP3 SWAP1 SWAP3 MSTORE PUSH1 0x40 ADD SWAP1 KECCAK256 SLOAD GT DUP1 PUSH2 0x1670 JUMPI POP DUP2 PUSH1 0x2 PUSH1 0x0 PUSH1 0x5 DUP5 DUP2 SLOAD DUP2 LT PUSH2 0x1649 JUMPI PUSH4 0x4E487B71 PUSH1 0xE0 SHL PUSH1 0x0 MSTORE PUSH1 0x32 PUSH1 0x4 MSTORE PUSH1 0x24 PUSH1 0x0 REVERT JUMPDEST PUSH1 0x0 SWAP2 DUP3 MSTORE PUSH1 0x20 DUP1 DUP4 KECCAK256 SWAP1 SWAP2 ADD SLOAD PUSH1 0x1 PUSH1 0x1 PUSH1 0xA0 SHL SUB AND DUP4 MSTORE DUP3 ADD SWAP3 SWAP1 SWAP3 MSTORE PUSH1 0x40 ADD SWAP1 KECCAK256 SLOAD GT JUMPDEST ISZERO PUSH2 0x1686 JUMPI PUSH1 0xE SLOAD PUSH1 0xD SLOAD SWAP5 POP SWAP5 POP POP POP POP SWAP1 SWAP2 JUMP JUMPDEST PUSH2 0x16DA PUSH1 0x1 PUSH1 0x0 PUSH1 0x5 DUP5 DUP2 SLOAD DUP2 LT PUSH2 0x16AE JUMPI PUSH4 0x4E487B71 PUSH1 0xE0 SHL PUSH1 0x0 MSTORE PUSH1 0x32 PUSH1 0x4 MSTORE PUSH1 0x24 PUSH1 0x0 REVERT JUMPDEST PUSH1 0x0 SWAP2 DUP3 MSTORE PUSH1 0x20 DUP1 DUP4 KECCAK256 SWAP1 SWAP2 ADD SLOAD PUSH1 0x1 PUSH1 0x1 PUSH1 0xA0 SHL SUB AND DUP4 MSTORE DUP3 ADD SWAP3 SWAP1 SWAP3 MSTORE PUSH1 0x40 ADD SWAP1 KECCAK256 SLOAD DUP5 SWAP1 PUSH2 0x1379 JUMP JUMPDEST SWAP3 POP PUSH2 0x1730 PUSH1 0x2 PUSH1 0x0 PUSH1 0x5 DUP5 DUP2 SLOAD DUP2 LT PUSH2 0x1704 JUMPI PUSH4 0x4E487B71 PUSH1 0xE0 SHL PUSH1 0x0 MSTORE PUSH1 0x32 PUSH1 0x4 MSTORE PUSH1 0x24 PUSH1 0x0 REVERT JUMPDEST PUSH1 0x0 SWAP2 DUP3 MSTORE PUSH1 0x20 DUP1 DUP4 KECCAK256 SWAP1 SWAP2 ADD SLOAD PUSH1 0x1 PUSH1 0x1 PUSH1 0xA0 SHL SUB AND DUP4 MSTORE DUP3 ADD SWAP3 SWAP1 SWAP3 MSTORE PUSH1 0x40 ADD SWAP1 KECCAK256 SLOAD DUP4 SWAP1 PUSH2 0x1379 JUMP JUMPDEST SWAP2 POP DUP1 PUSH2 0x173C DUP2 PUSH2 0x1F88 JUMP JUMPDEST SWAP2 POP POP PUSH2 0x15C7 JUMP JUMPDEST POP PUSH1 0xD SLOAD PUSH1 0xE SLOAD PUSH2 0x1754 SWAP2 PUSH2 0x1254 JUMP JUMPDEST DUP3 LT ISZERO PUSH2 0x176B JUMPI PUSH1 0xE SLOAD PUSH1 0xD SLOAD SWAP4 POP SWAP4 POP POP POP SWAP1 SWAP2 JUMP JUMPDEST SWAP1 SWAP4 SWAP1 SWAP3 POP SWAP1 POP JUMP JUMPDEST PUSH1 0x0 DUP2 DUP4 PUSH2 0x1795 JUMPI PUSH1 0x40 MLOAD PUSH3 0x461BCD PUSH1 0xE5 SHL DUP2 MSTORE PUSH1 0x4 ADD PUSH2 0x5AC SWAP2 SWAP1 PUSH2 0x1E57 JUMP JUMPDEST POP PUSH1 0x0 PUSH2 0x1228 DUP5 DUP7 PUSH2 0x1EF7 JUMP JUMPDEST PUSH1 0x0 DUP1 PUSH1 0x0 DUP1 PUSH2 0x17CC PUSH1 0x64 PUSH2 0x17C6 PUSH1 0xC SLOAD PUSH2 0x17C6 DUP12 DUP14 PUSH2 0x189F SWAP1 SWAP2 SWAP1 PUSH4 0xFFFFFFFF AND JUMP JUMPDEST SWAP1 PUSH2 0x1254 JUMP JUMPDEST SWAP1 POP PUSH1 0x0 PUSH2 0x17EE PUSH1 0x64 PUSH2 0x17C6 PUSH1 0xC SLOAD PUSH2 0x17C6 DUP12 DUP15 PUSH2 0x189F SWAP1 SWAP2 SWAP1 PUSH4 0xFFFFFFFF AND JUMP JUMPDEST SWAP1 POP PUSH1 0x0 PUSH2 0x1810 PUSH1 0x64 PUSH2 0x17C6 PUSH1 0xC SLOAD PUSH2 0x17C6 DUP12 DUP16 PUSH2 0x189F SWAP1 SWAP2 SWAP1 PUSH4 0xFFFFFFFF AND JUMP JUMPDEST SWAP3 SWAP11 SWAP2 SWAP10 POP SWAP2 SWAP8 POP SWAP6 POP POP POP POP POP POP JUMP JUMPDEST PUSH1 0x0 PUSH2 0x1228 DUP3 PUSH2 0x1833 DUP6 DUP2 DUP10 DUP10 PUSH2 0x1379 JUMP JUMPDEST SWAP1 PUSH2 0x1379 JUMP JUMPDEST PUSH1 0x0 DUP1 DUP1 PUSH2 0x1847 DUP7 DUP6 PUSH2 0x189F JUMP JUMPDEST SWAP1 POP PUSH1 0x0 PUSH2 0x1855 DUP7 DUP7 PUSH2 0x189F JUMP JUMPDEST SWAP2 SWAP8 SWAP2 SWAP7 POP SWAP1 SWAP5 POP POP POP POP POP JUMP JUMPDEST PUSH1 0x0 DUP1 PUSH2 0x1870 DUP6 DUP5 PUSH2 0x189F JUMP JUMPDEST SWAP1 POP PUSH1 0x0 PUSH2 0x187E DUP6 DUP6 PUSH2 0x189F JUMP JUMPDEST SWAP1 POP PUSH1 0x0 PUSH2 0x1892 DUP3 PUSH2 0x1833 DUP6 DUP2 DUP14 DUP14 PUSH2 0x1379 JUMP JUMPDEST SWAP10 SWAP9 POP POP POP POP POP POP POP POP POP JUMP JUMPDEST PUSH1 0x0 DUP3 PUSH2 0x18AE JUMPI POP PUSH1 0x0 PUSH2 0x4DA JUMP JUMPDEST PUSH1 0x0 PUSH2 0x18BA DUP4 DUP6 PUSH2 0x1F17 JUMP JUMPDEST SWAP1 POP DUP3 PUSH2 0x18C7 DUP6 DUP4 PUSH2 0x1EF7 JUMP JUMPDEST EQ PUSH2 0x5CB JUMPI PUSH1 0x40 MLOAD PUSH3 0x461BCD PUSH1 0xE5 SHL DUP2 MSTORE PUSH1 0x20 PUSH1 0x4 DUP3 ADD MSTORE PUSH1 0x21 PUSH1 0x24 DUP3 ADD MSTORE PUSH32 0x536166654D6174683A206D756C7469706C69636174696F6E206F766572666C6F PUSH1 0x44 DUP3 ADD MSTORE PUSH1 0x77 PUSH1 0xF8 SHL PUSH1 0x64 DUP3 ADD MSTORE PUSH1 0x84 ADD PUSH2 0x5AC JUMP JUMPDEST PUSH1 0x1 PUSH1 0x1 PUSH1 0xA0 SHL SUB DUP6 AND PUSH1 0x0 SWAP1 DUP2 MSTORE PUSH1 0x2 PUSH1 0x20 MSTORE PUSH1 0x40 SWAP1 KECCAK256 SLOAD PUSH2 0x1941 SWAP1 DUP5 PUSH2 0x1379 JUMP JUMPDEST PUSH1 0x1 PUSH1 0x1 PUSH1 0xA0 SHL SUB DUP7 AND PUSH1 0x0 SWAP1 DUP2 MSTORE PUSH1 0x2 PUSH1 0x20 SWAP1 DUP2 MSTORE PUSH1 0x40 DUP1 DUP4 KECCAK256 SWAP4 SWAP1 SWAP4 SSTORE PUSH1 0x1 SWAP1 MSTORE KECCAK256 SLOAD PUSH2 0x1970 SWAP1 DUP4 PUSH2 0x1379 JUMP JUMPDEST PUSH1 0x1 PUSH1 0x1 PUSH1 0xA0 SHL SUB DUP1 DUP8 AND PUSH1 0x0 SWAP1 DUP2 MSTORE PUSH1 0x1 PUSH1 0x20 MSTORE PUSH1 0x40 DUP1 DUP3 KECCAK256 SWAP4 SWAP1 SWAP4 SSTORE SWAP1 DUP7 AND DUP2 MSTORE KECCAK256 SLOAD PUSH2 0x199F SWAP1 DUP3 PUSH2 0x1296 JUMP JUMPDEST PUSH1 0x1 PUSH1 0x1 PUSH1 0xA0 SHL SUB SWAP1 SWAP5 AND PUSH1 0x0 SWAP1 DUP2 MSTORE PUSH1 0x1 PUSH1 0x20 MSTORE PUSH1 0x40 SWAP1 KECCAK256 SWAP4 SWAP1 SWAP4 SSTORE POP POP POP POP JUMP JUMPDEST PUSH1 0x0 PUSH2 0x19CC PUSH2 0x1231 JUMP JUMPDEST SWAP1 POP PUSH1 0x0 PUSH2 0x19DA DUP5 DUP4 PUSH2 0x189F JUMP JUMPDEST PUSH1 0x9 SLOAD PUSH1 0x1 PUSH1 0x1 PUSH1 0xA0 SHL SUB AND PUSH1 0x0 SWAP1 DUP2 MSTORE PUSH1 0x1 PUSH1 0x20 MSTORE PUSH1 0x40 SWAP1 KECCAK256 SLOAD SWAP1 SWAP2 POP PUSH2 0x1A02 SWAP1 DUP3 PUSH2 0x1296 JUMP JUMPDEST PUSH1 0x9 DUP1 SLOAD PUSH1 0x1 PUSH1 0x1 PUSH1 0xA0 SHL SUB SWAP1 DUP2 AND PUSH1 0x0 SWAP1 DUP2 MSTORE PUSH1 0x1 PUSH1 0x20 SWAP1 DUP2 MSTORE PUSH1 0x40 DUP1 DUP4 KECCAK256 SWAP6 SWAP1 SWAP6 SSTORE SWAP3 SLOAD SWAP1 SWAP2 AND DUP2 MSTORE PUSH1 0x2 SWAP1 SWAP2 MSTORE KECCAK256 SLOAD PUSH2 0x1A3E SWAP1 DUP6 PUSH2 0x1296 JUMP JUMPDEST PUSH1 0x9 DUP1 SLOAD PUSH1 0x1 PUSH1 0x1 PUSH1 0xA0 SHL SUB SWAP1 DUP2 AND PUSH1 0x0 SWAP1 DUP2 MSTORE PUSH1 0x2 PUSH1 0x20 SWAP1 DUP2 MSTORE PUSH1 0x40 SWAP2 DUP3 SWAP1 KECCAK256 SWAP5 SWAP1 SWAP5 SSTORE SWAP2 SLOAD SWAP2 MLOAD DUP8 DUP2 MSTORE SWAP2 DUP2 AND SWAP3 SWAP1 DUP7 AND SWAP2 PUSH32 0xDDF252AD1BE2C89B69C2B068FC378DAA952BA7F163C4A11628F55A4DF523B3EF SWAP2 ADD PUSH1 0x40 MLOAD DUP1 SWAP2 SUB SWAP1 LOG3 POP POP POP POP JUMP JUMPDEST PUSH2 0x1ABC DUP5 PUSH2 0x1833 DUP8 PUSH1 0xE SLOAD PUSH2 0x1379 SWAP1 SWAP2 SWAP1 PUSH4 0xFFFFFFFF AND JUMP JUMPDEST PUSH1 0xE SSTORE PUSH1 0xF SLOAD PUSH2 0x1ACC SWAP1 DUP5 PUSH2 0x1296 JUMP JUMPDEST PUSH1 0xF SSTORE PUSH1 0x10 SLOAD PUSH2 0x1ADC SWAP1 DUP4 PUSH2 0x1296 JUMP JUMPDEST PUSH1 0x10 SSTORE PUSH1 0x11 SLOAD PUSH2 0x1AEC SWAP1 DUP3 PUSH2 0x1296 JUMP JUMPDEST PUSH1 0x11 SSTORE PUSH1 0xD SLOAD PUSH2 0x1AFC SWAP1 DUP4 PUSH2 0x1379 JUMP JUMPDEST PUSH1 0xD SSTORE PUSH1 0x40 MLOAD DUP3 DUP2 MSTORE PUSH1 0x0 SWAP1 ADDRESS SWAP1 PUSH32 0xDDF252AD1BE2C89B69C2B068FC378DAA952BA7F163C4A11628F55A4DF523B3EF SWAP1 PUSH1 0x20 ADD PUSH1 0x40 MLOAD DUP1 SWAP2 SUB SWAP1 LOG3 POP POP POP POP POP JUMP JUMPDEST PUSH1 0x1 PUSH1 0x1 PUSH1 0xA0 SHL SUB DUP6 AND PUSH1 0x0 SWAP1 DUP2 MSTORE PUSH1 0x1 PUSH1 0x20 MSTORE PUSH1 0x40 SWAP1 KECCAK256 SLOAD PUSH2 0x1B61 SWAP1 DUP4 PUSH2 0x1379 JUMP JUMPDEST PUSH1 0x1 PUSH1 0x1 PUSH1 0xA0 SHL SUB DUP1 DUP8 AND PUSH1 0x0 SWAP1 DUP2 MSTORE PUSH1 0x1 PUSH1 0x20 SWAP1 DUP2 MSTORE PUSH1 0x40 DUP1 DUP4 KECCAK256 SWAP5 SWAP1 SWAP5 SSTORE SWAP2 DUP8 AND DUP2 MSTORE PUSH1 0x2 SWAP1 SWAP2 MSTORE KECCAK256 SLOAD PUSH2 0x1B97 SWAP1 DUP5 PUSH2 0x1296 JUMP JUMPDEST PUSH1 0x1 PUSH1 0x1 PUSH1 0xA0 SHL SUB DUP6 AND PUSH1 0x0 SWAP1 DUP2 MSTORE PUSH1 0x2 PUSH1 0x20 SWAP1 DUP2 MSTORE PUSH1 0x40 DUP1 DUP4 KECCAK256 SWAP4 SWAP1 SWAP4 SSTORE PUSH1 0x1 SWAP1 MSTORE KECCAK256 SLOAD PUSH2 0x199F SWAP1 DUP3 PUSH2 0x1296 JUMP JUMPDEST PUSH1 0x1 PUSH1 0x1 PUSH1 0xA0 SHL SUB DUP5 AND PUSH1 0x0 SWAP1 DUP2 MSTORE PUSH1 0x1 PUSH1 0x20 MSTORE PUSH1 0x40 SWAP1 KECCAK256 SLOAD PUSH2 0x1BE9 SWAP1 DUP4 PUSH2 0x1379 JUMP JUMPDEST PUSH1 0x1 PUSH1 0x1 PUSH1 0xA0 SHL SUB DUP1 DUP7 AND PUSH1 0x0 SWAP1 DUP2 MSTORE PUSH1 0x1 PUSH1 0x20 MSTORE PUSH1 0x40 DUP1 DUP3 KECCAK256 SWAP4 SWAP1 SWAP4 SSTORE SWAP1 DUP6 AND DUP2 MSTORE KECCAK256 SLOAD PUSH2 0x1C18 SWAP1 DUP3 PUSH2 0x1296 JUMP JUMPDEST PUSH1 0x1 PUSH1 0x1 PUSH1 0xA0 SHL SUB SWAP1 SWAP4 AND PUSH1 0x0 SWAP1 DUP2 MSTORE PUSH1 0x1 PUSH1 0x20 MSTORE PUSH1 0x40 SWAP1 KECCAK256 SWAP3 SWAP1 SWAP3 SSTORE POP POP POP JUMP JUMPDEST PUSH1 0x1 PUSH1 0x1 PUSH1 0xA0 SHL SUB DUP7 AND PUSH1 0x0 SWAP1 DUP2 MSTORE PUSH1 0x2 PUSH1 0x20 MSTORE PUSH1 0x40 SWAP1 KECCAK256 SLOAD PUSH2 0x1C5D SWAP1 DUP6 PUSH2 0x1379 JUMP JUMPDEST PUSH1 0x1 PUSH1 0x1 PUSH1 0xA0 SHL SUB DUP8 AND PUSH1 0x0 SWAP1 DUP2 MSTORE PUSH1 0x2 PUSH1 0x20 SWAP1 DUP2 MSTORE PUSH1 0x40 DUP1 DUP4 KECCAK256 SWAP4 SWAP1 SWAP4 SSTORE PUSH1 0x1 SWAP1 MSTORE KECCAK256 SLOAD PUSH2 0x1C8C SWAP1 DUP5 PUSH2 0x1379 JUMP JUMPDEST PUSH1 0x1 PUSH1 0x1 PUSH1 0xA0 SHL SUB DUP1 DUP9 AND PUSH1 0x0 SWAP1 DUP2 MSTORE PUSH1 0x1 PUSH1 0x20 SWAP1 DUP2 MSTORE PUSH1 0x40 DUP1 DUP4 KECCAK256 SWAP5 SWAP1 SWAP5 SSTORE SWAP2 DUP9 AND DUP2 MSTORE PUSH1 0x2 SWAP1 SWAP2 MSTORE KECCAK256 SLOAD PUSH2 0x1CC2 SWAP1 DUP4 PUSH2 0x1296 JUMP JUMPDEST PUSH1 0x1 PUSH1 0x1 PUSH1 0xA0 SHL SUB DUP7 AND PUSH1 0x0 SWAP1 DUP2 MSTORE PUSH1 0x2 PUSH1 0x20 SWAP1 DUP2 MSTORE PUSH1 0x40 DUP1 DUP4 KECCAK256 SWAP4 SWAP1 SWAP4 SSTORE PUSH1 0x1 SWAP1 MSTORE KECCAK256 SLOAD PUSH2 0x1CF1 SWAP1 DUP3 PUSH2 0x1296 JUMP JUMPDEST PUSH1 0x1 PUSH1 0x1 PUSH1 0xA0 SHL SUB SWAP1 SWAP6 AND PUSH1 0x0 SWAP1 DUP2 MSTORE PUSH1 0x1 PUSH1 0x20 MSTORE PUSH1 0x40 SWAP1 KECCAK256 SWAP5 SWAP1 SWAP5 SSTORE POP POP POP POP POP JUMP JUMPDEST DUP1 CALLDATALOAD PUSH1 0x1 PUSH1 0x1 PUSH1 0xA0 SHL SUB DUP2 AND DUP2 EQ PUSH2 0x1D2C JUMPI PUSH1 0x0 DUP1 REVERT JUMPDEST SWAP2 SWAP1 POP JUMP JUMPDEST PUSH1 0x0 PUSH1 0x20 DUP3 DUP5 SUB SLT ISZERO PUSH2 0x1D42 JUMPI DUP1 DUP2 REVERT JUMPDEST PUSH2 0x5CB DUP3 PUSH2 0x1D15 JUMP JUMPDEST PUSH1 0x0 DUP1 PUSH1 0x40 DUP4 DUP6 SUB SLT ISZERO PUSH2 0x1D5D JUMPI DUP1 DUP2 REVERT JUMPDEST PUSH2 0x1D66 DUP4 PUSH2 0x1D15 JUMP JUMPDEST SWAP2 POP PUSH2 0x1D74 PUSH1 0x20 DUP5 ADD PUSH2 0x1D15 JUMP JUMPDEST SWAP1 POP SWAP3 POP SWAP3 SWAP1 POP JUMP JUMPDEST PUSH1 0x0 DUP1 PUSH1 0x0 PUSH1 0x60 DUP5 DUP7 SUB SLT ISZERO PUSH2 0x1D91 JUMPI DUP1 DUP2 REVERT JUMPDEST PUSH2 0x1D9A DUP5 PUSH2 0x1D15 JUMP JUMPDEST SWAP3 POP PUSH2 0x1DA8 PUSH1 0x20 DUP6 ADD PUSH2 0x1D15 JUMP JUMPDEST SWAP2 POP PUSH1 0x40 DUP5 ADD CALLDATALOAD SWAP1 POP SWAP3 POP SWAP3 POP SWAP3 JUMP JUMPDEST PUSH1 0x0 DUP1 PUSH1 0x40 DUP4 DUP6 SUB SLT ISZERO PUSH2 0x1DCA JUMPI DUP2 DUP3 REVERT JUMPDEST PUSH2 0x1DD3 DUP4 PUSH2 0x1D15 JUMP JUMPDEST SWAP5 PUSH1 0x20 SWAP4 SWAP1 SWAP4 ADD CALLDATALOAD SWAP4 POP POP POP JUMP JUMPDEST PUSH1 0x0 PUSH1 0x20 DUP3 DUP5 SUB SLT ISZERO PUSH2 0x1DF2 JUMPI DUP1 DUP2 REVERT JUMPDEST POP CALLDATALOAD SWAP2 SWAP1 POP JUMP JUMPDEST PUSH1 0x0 DUP1 PUSH1 0x40 DUP4 DUP6 SUB SLT ISZERO PUSH2 0x1E0B JUMPI DUP2 DUP3 REVERT JUMPDEST DUP3 CALLDATALOAD SWAP2 POP PUSH1 0x20 DUP4 ADD CALLDATALOAD DUP1 ISZERO ISZERO DUP2 EQ PUSH2 0x1E21 JUMPI DUP2 DUP3 REVERT JUMPDEST DUP1 SWAP2 POP POP SWAP3 POP SWAP3 SWAP1 POP JUMP JUMPDEST PUSH1 0x0 DUP1 PUSH1 0x0 PUSH1 0x60 DUP5 DUP7 SUB SLT ISZERO PUSH2 0x1E40 JUMPI DUP3 DUP4 REVERT JUMPDEST POP POP DUP2 CALLDATALOAD SWAP4 PUSH1 0x20 DUP4 ADD CALLDATALOAD SWAP4 POP PUSH1 0x40 SWAP1 SWAP3 ADD CALLDATALOAD SWAP2 SWAP1 POP JUMP JUMPDEST PUSH1 0x0 PUSH1 0x20 DUP1 DUP4 MSTORE DUP4 MLOAD DUP1 DUP3 DUP6 ADD MSTORE DUP3 JUMPDEST DUP2 DUP2 LT ISZERO PUSH2 0x1E83 JUMPI DUP6 DUP2 ADD DUP4 ADD MLOAD DUP6 DUP3 ADD PUSH1 0x40 ADD MSTORE DUP3 ADD PUSH2 0x1E67 JUMP JUMPDEST DUP2 DUP2 GT ISZERO PUSH2 0x1E94 JUMPI DUP4 PUSH1 0x40 DUP4 DUP8 ADD ADD MSTORE JUMPDEST POP PUSH1 0x1F ADD PUSH1 0x1F NOT AND SWAP3 SWAP1 SWAP3 ADD PUSH1 0x40 ADD SWAP4 SWAP3 POP POP POP JUMP JUMPDEST PUSH1 0x20 DUP1 DUP3 MSTORE DUP2 DUP2 ADD MSTORE PUSH32 0x4F776E61626C653A2063616C6C6572206973206E6F7420746865206F776E6572 PUSH1 0x40 DUP3 ADD MSTORE PUSH1 0x60 ADD SWAP1 JUMP JUMPDEST PUSH1 0x0 DUP3 NOT DUP3 GT ISZERO PUSH2 0x1EF2 JUMPI PUSH2 0x1EF2 PUSH2 0x1FA3 JUMP JUMPDEST POP ADD SWAP1 JUMP JUMPDEST PUSH1 0x0 DUP3 PUSH2 0x1F12 JUMPI PUSH4 0x4E487B71 PUSH1 0xE0 SHL DUP2 MSTORE PUSH1 0x12 PUSH1 0x4 MSTORE PUSH1 0x24 DUP2 REVERT JUMPDEST POP DIV SWAP1 JUMP JUMPDEST PUSH1 0x0 DUP2 PUSH1 0x0 NOT DIV DUP4 GT DUP3 ISZERO ISZERO AND ISZERO PUSH2 0x1F31 JUMPI PUSH2 0x1F31 PUSH2 0x1FA3 JUMP JUMPDEST POP MUL SWAP1 JUMP JUMPDEST PUSH1 0x0 DUP3 DUP3 LT ISZERO PUSH2 0x1F48 JUMPI PUSH2 0x1F48 PUSH2 0x1FA3 JUMP JUMPDEST POP SUB SWAP1 JUMP JUMPDEST PUSH1 0x1 DUP2 DUP2 SHR SWAP1 DUP3 AND DUP1 PUSH2 0x1F61 JUMPI PUSH1 0x7F DUP3 AND SWAP2 POP JUMPDEST PUSH1 0x20 DUP3 LT DUP2 EQ ISZERO PUSH2 0x1F82 JUMPI PUSH4 0x4E487B71 PUSH1 0xE0 SHL PUSH1 0x0 MSTORE PUSH1 0x22 PUSH1 0x4 MSTORE PUSH1 0x24 PUSH1 0x0 REVERT JUMPDEST POP SWAP2 SWAP1 POP JUMP JUMPDEST PUSH1 0x0 PUSH1 0x0 NOT DUP3 EQ ISZERO PUSH2 0x1F9C JUMPI PUSH2 0x1F9C PUSH2 0x1FA3 JUMP JUMPDEST POP PUSH1 0x1 ADD SWAP1 JUMP JUMPDEST PUSH4 0x4E487B71 PUSH1 0xE0 SHL PUSH1 0x0 MSTORE PUSH1 0x11 PUSH1 0x4 MSTORE PUSH1 0x24 PUSH1 0x0 REVERT INVALID SLOAD 0x4F 0x4B GASLIMIT 0x4E ORIGIN ADDRESS GASPRICE KECCAK256 PUSH5 0x6563726561 PUSH20 0x656420616C6C6F77616E63652062656C6F77207A PUSH6 0x726F544F4B45 0x4E ORIGIN ADDRESS GASPRICE KECCAK256 PUSH21 0x72616E7366657220616D6F756E7420657863656564 PUSH20 0x20616C6C6F77616E6365A2646970667358221220 RETURNDATACOPY 0xD0 PUSH30 0xDD89CCF3DF220666FC2EB840B9664CD2A2744A598F0C0A7DC2749535A064 PUSH20 0x6F6C634300080400330000000000000000000000 "
		},
		"gasEstimates": {
			"creation": {
				"codeDepositCost": "1651200",
				"executionCost": "infinite",
				"totalCost": "infinite"
			},
			"external": {
				"FeeAddress()": "1083",
				"_BURN_FEE()": "1106",
				"_CHARITY_FEE()": "1084",
				"_TAX_FEE()": "1040",
				"_owner()": "1148",
				"allowance(address,address)": "infinite",
				"approve(address,uint256)": "22566",
				"balanceOf(address)": "infinite",
				"decimals()": "1101",
				"decreaseAllowance(address,uint256)": "infinite",
				"deliver(uint256)": "infinite",
				"excludeAccount(address)": "infinite",
				"includeAccount(address)": "infinite",
				"increaseAllowance(address,uint256)": "23657",
				"isExcluded(address)": "1316",
				"name()": "infinite",
				"owner()": "1099",
				"reflectionFromToken(uint256,bool)": "infinite",
				"renounceOwnership()": "24254",
				"setAsCharityAccount(address)": "22056",
				"symbol()": "infinite",
				"tokenFromReflection(uint256)": "infinite",
				"totalBurn()": "1082",
				"totalCharity()": "1081",
				"totalFees()": "1072",
				"totalSupply()": "1038",
				"transfer(address,uint256)": "infinite",
				"transferFrom(address,address,uint256)": "infinite",
				"transferOwnership(address)": "24466",
				"updateFee(uint256,uint256,uint256)": "infinite"
			},
			"internal": {
				"_approve(address,address,uint256)": "infinite",
				"_bothTransferContent(address,address,uint256,uint256,uint256,uint256)": "infinite",
				"_excludedFromTransferContent(address,address,uint256,uint256,uint256)": "infinite",
				"_excludedToTransferContent(address,address,uint256,uint256,uint256)": "infinite",
				"_getCurrentSupply()": "infinite",
				"_getRBasics(uint256,uint256,uint256)": "infinite",
				"_getRTransferAmount(uint256,uint256,uint256,uint256,uint256)": "infinite",
				"_getRate()": "infinite",
				"_getTBasics(uint256,uint256,uint256,uint256)": "infinite",
				"_getTaxFee()": "infinite",
				"_getValues(uint256)": "infinite",
				"_reflectFee(uint256,uint256,uint256,uint256,uint256)": "infinite",
				"_sendToCharity(uint256,address)": "infinite",
				"_standardTransferContent(address,address,uint256,uint256)": "infinite",
				"_transfer(address,address,uint256)": "infinite",
				"_transferBothExcluded(address,address,uint256)": "infinite",
				"_transferFromExcluded(address,address,uint256)": "infinite",
				"_transferStandard(address,address,uint256)": "infinite",
				"_transferToExcluded(address,address,uint256)": "infinite",
				"getTTransferAmount(uint256,uint256,uint256,uint256)": "infinite",
				"removeAllFee()": "79936",
				"restoreAllFee()": "infinite"
			}
		},
		"methodIdentifiers": {
			"FeeAddress()": "7b7e8bac",
			"_BURN_FEE()": "77ef7993",
			"_CHARITY_FEE()": "ae9dd5e0",
			"_TAX_FEE()": "b5862428",
			"_owner()": "b2bdfa7b",
			"allowance(address,address)": "dd62ed3e",
			"approve(address,uint256)": "095ea7b3",
			"balanceOf(address)": "70a08231",
			"decimals()": "313ce567",
			"decreaseAllowance(address,uint256)": "a457c2d7",
			"deliver(uint256)": "3bd5d173",
			"excludeAccount(address)": "f2cc0c18",
			"includeAccount(address)": "f84354f1",
			"increaseAllowance(address,uint256)": "39509351",
			"isExcluded(address)": "cba0e996",
			"name()": "06fdde03",
			"owner()": "8da5cb5b",
			"reflectionFromToken(uint256,bool)": "4549b039",
			"renounceOwnership()": "715018a6",
			"setAsCharityAccount(address)": "457bdf6c",
			"symbol()": "95d89b41",
			"tokenFromReflection(uint256)": "2d838119",
			"totalBurn()": "3c9f861d",
			"totalCharity()": "d608b3b2",
			"totalFees()": "13114a9d",
			"totalSupply()": "18160ddd",
			"transfer(address,uint256)": "a9059cbb",
			"transferFrom(address,address,uint256)": "23b872dd",
			"transferOwnership(address)": "f2fde38b",
			"updateFee(uint256,uint256,uint256)": "fc061a4f"
		}
	},
	"abi": [
		{
			"inputs": [
				{
					"internalType": "string",
					"name": "_name",
					"type": "string"
				},
				{
					"internalType": "string",
					"name": "_symbol",
					"type": "string"
				},
				{
					"internalType": "uint256",
					"name": "_decimals",
					"type": "uint256"
				},
				{
					"internalType": "uint256",
					"name": "_supply",
					"type": "uint256"
				},
				{
					"internalType": "uint256",
					"name": "_txFee",
					"type": "uint256"
				},
				{
					"internalType": "uint256",
					"name": "_burnFee",
					"type": "uint256"
				},
				{
					"internalType": "uint256",
					"name": "_charityFee",
					"type": "uint256"
				},
				{
					"internalType": "address",
					"name": "_FeeAddress",
					"type": "address"
				},
				{
					"internalType": "address",
					"name": "tokenOwner",
					"type": "address"
				},
				{
					"internalType": "address",
					"name": "service",
					"type": "address"
				}
			],
			"stateMutability": "payable",
			"type": "constructor"
		},
		{
			"anonymous": false,
			"inputs": [
				{
					"indexed": true,
					"internalType": "address",
					"name": "owner",
					"type": "address"
				},
				{
					"indexed": true,
					"internalType": "address",
					"name": "spender",
					"type": "address"
				},
				{
					"indexed": false,
					"internalType": "uint256",
					"name": "value",
					"type": "uint256"
				}
			],
			"name": "Approval",
			"type": "event"
		},
		{
			"anonymous": false,
			"inputs": [
				{
					"indexed": true,
					"internalType": "address",
					"name": "previousOwner",
					"type": "address"
				},
				{
					"indexed": true,
					"internalType": "address",
					"name": "newOwner",
					"type": "address"
				}
			],
			"name": "OwnershipTransferred",
			"type": "event"
		},
		{
			"anonymous": false,
			"inputs": [
				{
					"indexed": true,
					"internalType": "address",
					"name": "from",
					"type": "address"
				},
				{
					"indexed": true,
					"internalType": "address",
					"name": "to",
					"type": "address"
				},
				{
					"indexed": false,
					"internalType": "uint256",
					"name": "value",
					"type": "uint256"
				}
			],
			"name": "Transfer",
			"type": "event"
		},
		{
			"inputs": [],
			"name": "FeeAddress",
			"outputs": [
				{
					"internalType": "address",
					"name": "",
					"type": "address"
				}
			],
			"stateMutability": "view",
			"type": "function"
		},
		{
			"inputs": [],
			"name": "_BURN_FEE",
			"outputs": [
				{
					"internalType": "uint256",
					"name": "",
					"type": "uint256"
				}
			],
			"stateMutability": "view",
			"type": "function"
		},
		{
			"inputs": [],
			"name": "_CHARITY_FEE",
			"outputs": [
				{
					"internalType": "uint256",
					"name": "",
					"type": "uint256"
				}
			],
			"stateMutability": "view",
			"type": "function"
		},
		{
			"inputs": [],
			"name": "_TAX_FEE",
			"outputs": [
				{
					"internalType": "uint256",
					"name": "",
					"type": "uint256"
				}
			],
			"stateMutability": "view",
			"type": "function"
		},
		{
			"inputs": [],
			"name": "_owner",
			"outputs": [
				{
					"internalType": "address",
					"name": "",
					"type": "address"
				}
			],
			"stateMutability": "view",
			"type": "function"
		},
		{
			"inputs": [
				{
					"internalType": "address",
					"name": "owner",
					"type": "address"
				},
				{
					"internalType": "address",
					"name": "spender",
					"type": "address"
				}
			],
			"name": "allowance",
			"outputs": [
				{
					"internalType": "uint256",
					"name": "",
					"type": "uint256"
				}
			],
			"stateMutability": "view",
			"type": "function"
		},
		{
			"inputs": [
				{
					"internalType": "address",
					"name": "spender",
					"type": "address"
				},
				{
					"internalType": "uint256",
					"name": "amount",
					"type": "uint256"
				}
			],
			"name": "approve",
			"outputs": [
				{
					"internalType": "bool",
					"name": "",
					"type": "bool"
				}
			],
			"stateMutability": "nonpayable",
			"type": "function"
		},
		{
			"inputs": [
				{
					"internalType": "address",
					"name": "account",
					"type": "address"
				}
			],
			"name": "balanceOf",
			"outputs": [
				{
					"internalType": "uint256",
					"name": "",
					"type": "uint256"
				}
			],
			"stateMutability": "view",
			"type": "function"
		},
		{
			"inputs": [],
			"name": "decimals",
			"outputs": [
				{
					"internalType": "uint8",
					"name": "",
					"type": "uint8"
				}
			],
			"stateMutability": "view",
			"type": "function"
		},
		{
			"inputs": [
				{
					"internalType": "address",
					"name": "spender",
					"type": "address"
				},
				{
					"internalType": "uint256",
					"name": "subtractedValue",
					"type": "uint256"
				}
			],
			"name": "decreaseAllowance",
			"outputs": [
				{
					"internalType": "bool",
					"name": "",
					"type": "bool"
				}
			],
			"stateMutability": "nonpayable",
			"type": "function"
		},
		{
			"inputs": [
				{
					"internalType": "uint256",
					"name": "tAmount",
					"type": "uint256"
				}
			],
			"name": "deliver",
			"outputs": [],
			"stateMutability": "nonpayable",
			"type": "function"
		},
		{
			"inputs": [
				{
					"internalType": "address",
					"name": "account",
					"type": "address"
				}
			],
			"name": "excludeAccount",
			"outputs": [],
			"stateMutability": "nonpayable",
			"type": "function"
		},
		{
			"inputs": [
				{
					"internalType": "address",
					"name": "account",
					"type": "address"
				}
			],
			"name": "includeAccount",
			"outputs": [],
			"stateMutability": "nonpayable",
			"type": "function"
		},
		{
			"inputs": [
				{
					"internalType": "address",
					"name": "spender",
					"type": "address"
				},
				{
					"internalType": "uint256",
					"name": "addedValue",
					"type": "uint256"
				}
			],
			"name": "increaseAllowance",
			"outputs": [
				{
					"internalType": "bool",
					"name": "",
					"type": "bool"
				}
			],
			"stateMutability": "nonpayable",
			"type": "function"
		},
		{
			"inputs": [
				{
					"internalType": "address",
					"name": "account",
					"type": "address"
				}
			],
			"name": "isExcluded",
			"outputs": [
				{
					"internalType": "bool",
					"name": "",
					"type": "bool"
				}
			],
			"stateMutability": "view",
			"type": "function"
		},
		{
			"inputs": [],
			"name": "name",
			"outputs": [
				{
					"internalType": "string",
					"name": "",
					"type": "string"
				}
			],
			"stateMutability": "view",
			"type": "function"
		},
		{
			"inputs": [],
			"name": "owner",
			"outputs": [
				{
					"internalType": "address",
					"name": "",
					"type": "address"
				}
			],
			"stateMutability": "view",
			"type": "function"
		},
		{
			"inputs": [
				{
					"internalType": "uint256",
					"name": "tAmount",
					"type": "uint256"
				},
				{
					"internalType": "bool",
					"name": "deductTransferFee",
					"type": "bool"
				}
			],
			"name": "reflectionFromToken",
			"outputs": [
				{
					"internalType": "uint256",
					"name": "",
					"type": "uint256"
				}
			],
			"stateMutability": "view",
			"type": "function"
		},
		{
			"inputs": [],
			"name": "renounceOwnership",
			"outputs": [],
			"stateMutability": "nonpayable",
			"type": "function"
		},
		{
			"inputs": [
				{
					"internalType": "address",
					"name": "account",
					"type": "address"
				}
			],
			"name": "setAsCharityAccount",
			"outputs": [],
			"stateMutability": "nonpayable",
			"type": "function"
		},
		{
			"inputs": [],
			"name": "symbol",
			"outputs": [
				{
					"internalType": "string",
					"name": "",
					"type": "string"
				}
			],
			"stateMutability": "view",
			"type": "function"
		},
		{
			"inputs": [
				{
					"internalType": "uint256",
					"name": "rAmount",
					"type": "uint256"
				}
			],
			"name": "tokenFromReflection",
			"outputs": [
				{
					"internalType": "uint256",
					"name": "",
					"type": "uint256"
				}
			],
			"stateMutability": "view",
			"type": "function"
		},
		{
			"inputs": [],
			"name": "totalBurn",
			"outputs": [
				{
					"internalType": "uint256",
					"name": "",
					"type": "uint256"
				}
			],
			"stateMutability": "view",
			"type": "function"
		},
		{
			"inputs": [],
			"name": "totalCharity",
			"outputs": [
				{
					"internalType": "uint256",
					"name": "",
					"type": "uint256"
				}
			],
			"stateMutability": "view",
			"type": "function"
		},
		{
			"inputs": [],
			"name": "totalFees",
			"outputs": [
				{
					"internalType": "uint256",
					"name": "",
					"type": "uint256"
				}
			],
			"stateMutability": "view",
			"type": "function"
		},
		{
			"inputs": [],
			"name": "totalSupply",
			"outputs": [
				{
					"internalType": "uint256",
					"name": "",
					"type": "uint256"
				}
			],
			"stateMutability": "view",
			"type": "function"
		},
		{
			"inputs": [
				{
					"internalType": "address",
					"name": "recipient",
					"type": "address"
				},
				{
					"internalType": "uint256",
					"name": "amount",
					"type": "uint256"
				}
			],
			"name": "transfer",
			"outputs": [
				{
					"internalType": "bool",
					"name": "",
					"type": "bool"
				}
			],
			"stateMutability": "nonpayable",
			"type": "function"
		},
		{
			"inputs": [
				{
					"internalType": "address",
					"name": "sender",
					"type": "address"
				},
				{
					"internalType": "address",
					"name": "recipient",
					"type": "address"
				},
				{
					"internalType": "uint256",
					"name": "amount",
					"type": "uint256"
				}
			],
			"name": "transferFrom",
			"outputs": [
				{
					"internalType": "bool",
					"name": "",
					"type": "bool"
				}
			],
			"stateMutability": "nonpayable",
			"type": "function"
		},
		{
			"inputs": [
				{
					"internalType": "address",
					"name": "newOwner",
					"type": "address"
				}
			],
			"name": "transferOwnership",
			"outputs": [],
			"stateMutability": "nonpayable",
			"type": "function"
		},
		{
			"inputs": [
				{
					"internalType": "uint256",
					"name": "_txFee",
					"type": "uint256"
				},
				{
					"internalType": "uint256",
					"name": "_burnFee",
					"type": "uint256"
				},
				{
					"internalType": "uint256",
					"name": "_charityFee",
					"type": "uint256"
				}
			],
			"name": "updateFee",
			"outputs": [],
			"stateMutability": "nonpayable",
			"type": "function"
		}
	]
}